:100000000C942A000C9447000C9447000C94470071
:100010000C9447000C9447000C9447000C94B510C6
:100020000C9447000C9447000C9447000C94470034
:100030000C9447000C9447000C9447000C94470024
:100040000C9447000C9447000C9447000C94470014
:100050000C94470011241FBECFE5D8E0DEBFCDBF12
:1000600010E0A0E6B0E0ECEAF8E402C005900D92E2
:10007000A83BB107D9F717E0A8EBB0E001C01D928B
:10008000A833B107E1F70E94D3210C9454240C94B7
:100090000000DF93CF93CDB7DEB727970FB6F89464
:1000A000DEBF0FBECDBF89836A834B8389818430D5
:1000B00008F0EEC08A81883008F0EAC08B81813078
:1000C00009F06FC08981282F30E03F832E838E8115
:1000D0009F818130910549F12E813F812230310588
:1000E0002CF48E819F81009761F0D2C02E813F81D8
:1000F0002230310571F18E819F8183309105E9F1C4
:10010000C7C0ABE3B0E0EBE3F0E08081482F8A8129
:10011000282F30E081E090E0022E02C0880F991F66
:100120000A94E2F7842B8C93B3C0A8E3B0E0E8E331
:10013000F0E08081482F8A81282F30E081E090E034
:10014000022E02C0880F991F0A94E2F7842B8C9329
:100150009FC0A5E3B0E0E5E3F0E08081482F8A810D
:10016000282F30E081E090E0022E02C0880F991F16
:100170000A94E2F7842B8C938BC0A2E3B0E0E2E315
:10018000F0E08081482F8A81282F30E081E090E0E4
:10019000022E02C0880F991F0A94E2F7842B8C93D9
:1001A00077C08B81882309F073C08981282F30E0C4
:1001B0003D832C838C819D818130910559F12C8167
:1001C0003D81223031052CF48C819D81009769F0AE
:1001D0005FC02C813D812230310589F18C819D8168
:1001E0008330910509F440C053C0ABE3B0E0EBE3CA
:1001F000F0E08081482F8A81282F30E081E090E074
:10020000022E02C0880F991F0A94E2F7809584237A
:100210008C933EC0A8E3B0E0E8E3F0E08081482F93
:100220008A81282F30E081E090E0022E02C0880F02
:10023000991F0A94E2F7809584238C9329C0A5E343
:10024000B0E0E5E3F0E08081482F8A81282F30E09C
:1002500081E090E0022E02C0880F991F0A94E2F715
:10026000809584238C9314C0A2E3B0E0E2E3F0E035
:100270008081482F8A81282F30E081E090E0022E93
:1002800002C0880F991F0A94E2F7809584238C930B
:1002900027960FB6F894DEBF0FBECDBFCF91DF918A
:1002A0000895DF93CF9300D000D00F92CDB7DEB783
:1002B0008A836B838A81843008F06CC08B8188309C
:1002C00008F068C08A81282F30E03D832C834C8160
:1002D0005D814130510541F18C819D8182309105D4
:1002E00034F42C813D812115310561F055C04C81DC
:1002F0005D814230510551F18C819D8183309105A2
:10030000B9F14AC0E9E3F0E08081282F30E08B8129
:10031000882F90E0A90102C0559547958A95E2F78C
:10032000CA018170898338C0E6E3F0E08081282F1C
:1003300030E08B81882F90E0A90102C05595479548
:100340008A95E2F7CA018170898326C0E3E3F0E071
:100350008081282F30E08B81882F90E0A90102C096
:10036000559547958A95E2F7CA018170898314C033
:10037000E0E3F0E08081282F30E08B81882F90E04F
:10038000A90102C0559547958A95E2F7CA01817087
:10039000898302C08FEF898389810F900F900F901E
:1003A0000F900F90CF91DF910895DF93CF93CDB74A
:1003B000DEB727970FB6F894DEBF0FBECDBF898397
:1003C0006A834B838981843008F0EEC08A8188304B
:1003D00008F0EAC08B81813009F06FC08981282F35
:1003E00030E03F832E838E819F818130910549F1DA
:1003F0002E813F81223031052CF48E819F81009720
:1004000061F0D2C02E813F812230310571F18E81A1
:100410009F8183309105E9F1C7C0AAE3B0E0EAE328
:10042000F0E08081482F8A81282F30E081E090E041
:10043000022E02C0880F991F0A94E2F7842B8C9336
:10044000B3C0A7E3B0E0E7E3F0E08081482F8A8102
:10045000282F30E081E090E0022E02C0880F991F23
:100460000A94E2F7842B8C939FC0A4E3B0E0E4E30A
:10047000F0E08081482F8A81282F30E081E090E0F1
:10048000022E02C0880F991F0A94E2F7842B8C93E6
:100490008BC0A1E3B0E0E1E3F0E08081482F8A81E6
:1004A000282F30E081E090E0022E02C0880F991FD3
:1004B0000A94E2F7842B8C9377C08B81882309F010
:1004C00073C08981282F30E03D832C838C819D81EE
:1004D0008130910559F12C813D81223031052CF478
:1004E0008C819D81009769F05FC02C813D81223015
:1004F000310589F18C819D818330910509F440C0DB
:1005000053C0AAE3B0E0EAE3F0E08081482F8A819B
:10051000282F30E081E090E0022E02C0880F991F62
:100520000A94E2F7809584238C933EC0A7E3B0E061
:10053000E7E3F0E08081482F8A81282F30E081E0D6
:1005400090E0022E02C0880F991F0A94E2F780956E
:1005500084238C9329C0A4E3B0E0E4E3F0E080813D
:10056000482F8A81282F30E081E090E0022E02C0DF
:10057000880F991F0A94E2F7809584238C9314C006
:10058000A1E3B0E0E1E3F0E08081482F8A81282FE9
:1005900030E081E090E0022E02C0880F991F0A949B
:1005A000E2F7809584238C9327960FB6F894DEBFEC
:1005B0000FBECDBFCF91DF910895DF93CF9300D0D1
:1005C00000D0CDB7DEB789836A838981282F30E0D8
:1005D0003C832B838B819C8181309105D1F02B81D1
:1005E0003C81223031052CF48B819C81009761F095
:1005F0001EC02B813C812230310581F08B819C8192
:100600008330910581F013C0EAE3F0E08A818083B2
:100610000EC0E7E3F0E08A81808309C0E4E3F0E004
:100620008A81808304C0E1E3F0E08A8180830F90B7
:100630000F900F900F90CF91DF910895DF93CF939C
:1006400000D000D0CDB7DEB789836A838981282F97
:1006500030E03C832B838B819C8181309105D1F0EC
:100660002B813C81223031052CF48B819C810097B9
:1006700061F01EC02B813C812230310581F08B81DD
:100680009C818330910581F013C0EBE3F0E08A8117
:1006900080830EC0E8E3F0E08A81808309C0E5E34F
:1006A000F0E08A81808304C0E2E3F0E08A81808305
:1006B0000F900F900F900F90CF91DF910895DF93DF
:1006C000CF9300D00F92CDB7DEB78A83198203C0D3
:1006D00089818F5F898389818430D0F38091BA00CA
:1006E0009091BB0001969093BB008093BA008091DB
:1006F000BA009091BB0023E0883E92076CF0809195
:10070000B8009091B90001969093B9008093B80019
:100710001092BB001092BA008A81282F30E080919D
:10072000B8009091B9008217930754F01092B90065
:100730001092B8001092BB001092BA001B8202C047
:1007400082E08B838B810F900F900F90CF91DF9180
:100750000895DF93CF9300D000D0CDB7DEB79C8350
:100760008B838B819C81CC01A0E0B0E0880F991F26
:10077000AA1FBB1F880F991FAA1FBB1F880F991F95
:10078000AA1FBB1F880F991FAA1FBB1F9C01AD0189
:1007900080E092E1AAE7B0E0BC01CD010E949C2379
:1007A000DA01C90101979A838983E9E2F0E089813E
:1007B0008083E0E4F0E089819A81892F9927808302
:1007C000E0E4F0E086E88083EAE2F0E088E180831C
:1007D0000F900F900F900F90CF91DF910895DF93BE
:1007E000CF93CDB7DEB7EBE2F0E080818823DCF772
:1007F000ECE2F0E08081CF91DF910895DF93CF9319
:1008000000D00F92CDB7DEB79A838983EBE2F0E098
:100810008081882344F4ECE2F0E08081E981FA8170
:1008200080831B8202C082E08B838B810F900F90AC
:100830000F90CF91DF910895DF93CF930F92CDB7B3
:10084000DEB78983EBE2F0E08081882F90E0807250
:1008500090700097B9F3ECE2F0E0898180830F900B
:10086000CF91DF910895DF93CF9300D000D0CDB723
:10087000DEB79C838B831A8219820FC029813A814B
:100880008B819C81FC01E20FF31F80810E941C047C
:1008900089819A8101969A83898329813A818B8102
:1008A0009C81FC01E20FF31F8081882339F70F90B0
:1008B0000F900F900F90CF91DF910895AF92BF925C
:1008C000CF92DF92EF92FF920F93DF93CF930F922D
:1008D000CDB7DEB789838AE062E040E00E943E1136
:1008E0009093BF008093BE0082EE94E020E630E05B
:1008F000EEEBF0E0B90145E550E09F010981EE24FF
:10090000FF24CC24DD24AA24BB240E94641885EA99
:1009100094E028E630E0EEEBF0E0B90145E550E088
:100920009F010981EE24FF24CC24DD24AA24BB24CA
:100930000E9464180F90CF91DF910F91FF90EF907C
:10094000DF90CF90BF90AF900895DF93CF9300D00A
:1009500000D000D0CDB7DEB79E838D831C821B8272
:100960001A82198227C0ED81FE81808191819E01CA
:100970002D5F3F4FB90140E050E020E00E94091296
:10098000813019F081E08A8312C08A81882351F472
:100990000FB6F8940F928091BD008F5F8093BD00D9
:1009A0000F900FBE8B819C8101969C838B838981E4
:1009B0008F5F898389818330B4F288EC90E00E9454
:1009C0001E1ACFCFDF93CF93CDB7DEB727970FB6E1
:1009D000F894DEBF0FBECDBF9F838E831B821A8229
:1009E00019822FC0EE81FF81808191819E012C5F51
:1009F0003F4FB90140E050E020E00E9417138130E2
:100A000001F52C813D818A819B812817390739F0B6
:100A100081E089838C819D819B838A830DC089813C
:100A2000882351F40FB6F8940F928091BC008F5F29
:100A30008093BC000F900FBE8A819B8101969B839F
:100A40008A83EE81FF81808191810E9488148823AE
:100A500049F684EB90E00E941E1AF3CFDF93CF9308
:100A60000F92CDB7DEB78091BC00882321F0809132
:100A7000BD00882311F4198202C081E0898310929D
:100A8000BC001092BD0089810F90CF91DF91089535
:100A9000DF93CF93CDB7DEB727970FB6F894DEBFBD
:100AA0000FBECDBF9D838C836E834F838AE190E020
:100AB0000E94600B9A83898389819A81009709F447
:100AC0006FC08091C0009091C100009741F489816E
:100AD0009A819093C1008093C0000E94AF078E81DD
:100AE000823010F081E08E83E981FA81118E108EC0
:100AF000E981FA818E81868BE981FA818F81878BEA
:100B0000E981FA818C819D819183808389819A8199
:100B100002960E94D80C89819A810C960E94D80C6A
:100B2000E981FA8189819A8191878087E981FA81B7
:100B300089819A81938B828B8E81282F30E082E08D
:100B400090E0821B930BE981FA8195878487E98184
:100B5000FA8196898091C200891728F4E981FA8187
:100B600086898093C200E981FA818689282F30E046
:100B7000C901880F991F880F991F880F991F820F2D
:100B8000931FAC0147535F4F89819A819C012E5F6F
:100B90003F4FCA01B9010E94E80C81E08B8302C07B
:100BA0008FEF8B838B8127960FB6F894DEBF0FBE35
:100BB000CDBFCF91DF910895DF93CF9300D000D0C8
:100BC00000D0CDB7DEB79C838B837E836D8320916D
:100BD000C3003091C4008B819C81820F931F9A8344
:100BE00089838091C0009091C10002960E94980D67
:100BF000E091C000F091C10089819A819383828342
:100C00002091C3003091C40089819A818217930793
:100C100070F48091EF009091F0002091C00030912D
:100C2000C1002E5F3F4FB9010E942C0D0DC0809175
:100C3000ED009091EE002091C0003091C1002E5F38
:100C40003F4FB9010E942C0D8D819E81009761F06C
:100C50008091C0009091C1009C01245F3F4F8D8125
:100C60009E81B9010E942C0D26960FB6F894DEBF26
:100C70000FBECDBFCF91DF910895DF93CF9300D00A
:100C8000CDB7DEB73AC0F894E091F600F091F700E6
:100C9000868197819A83898389819A810C960E94A3
:100CA000980D789489819A8102960E94980DE98125
:100CB000FA8196898091C200891728F4E981FA8126
:100CC00086898093C200E981FA818689282F30E0E5
:100CD000C901880F991F880F991F880F991F820FCC
:100CE000931FAC0147535F4F89819A819C012E5F0E
:100CF0003F4FCA01B9010E94E80C8091F10088239E
:100D000009F0C1CF0F900F90CF91DF910895DF933D
:100D1000CF9300D000D0CDB7DEB70E945E1B2091EC
:100D2000C5003091C600821B930B9093C80080933E
:100D3000C70085C08091C3009091C4000196909334
:100D4000C4008093C3008091C7009091C8000197B0
:100D50009093C8008093C7008091C3009091C40015
:100D6000009709F064C08091ED009091EE009A83A5
:100D700089838091EF009091F0009093EE00809332
:100D8000ED0089819A819093F0008093EF004FC02D
:100D9000E091ED00F091EE000580F681E02D868176
:100DA00097819C838B83EB81FC81228133818091AD
:100DB000C3009091C4008217930708F440C0F894D0
:100DC0008B819C8102960E94980DEB81FC81848925
:100DD0009589009729F08B819C810C960E94980D33
:100DE0007894EB81FC8196898091C200891728F460
:100DF000EB81FC8186898093C200EB81FC8186892E
:100E0000282F30E0C901880F991F880F991F880F7C
:100E1000991F820F931FAC0147535F4F8B819C81B9
:100E20009C012E5F3F4FCA01B9010E94E80CE0917E
:100E3000ED00F091EE008081882309F0A9CF809128
:100E4000C7009091C800009709F074CF8091C3004B
:100E50009091C4009093C6008093C5000F900F90AE
:100E60000F900F90CF91DF910895DF93CF9300D033
:100E7000CDB7DEB70E943D060E9487060AC080916A
:100E8000C200882309F466C08091C200815080931B
:100E9000C2008091C200282F30E0C901880F991F3D
:100EA000880F991F880F991F820F931FFC01E7532A
:100EB000FF4F8081882319F38091C200282F30E0F2
:100EC000C901880F991F880F991F880F991F820FDA
:100ED000931F87539F4F9A838983E981FA81018009
:100EE000F281E02D82819381E981FA81928381836D
:100EF000E981FA812181328189819A8103962817BB
:100F0000390759F4E981FA810180F281E02D82816B
:100F10009381E981FA8192838183E981FA81018059
:100F2000F281E02D868197819093C1008093C0006B
:100F3000E091C000F091C100408151818091C000DA
:100F40009091C100E091C000F091C1002789622F0B
:100F5000FA0109950F900F90CF91DF910895DF93DB
:100F6000CF930F92CDB7DEB7198213C08981282F96
:100F700030E0C901880F991F880F991F880F991FAA
:100F8000820F931F87539F4F0E94AE0C89818F5F02
:100F900089838981823050F38BED90E00E94AE0C02
:100FA00084EE90E00E94AE0C81EF90E00E94AE0CC7
:100FB0008BED90E09093EE008093ED0084EE90E056
:100FC0009093F0008093EF000F90CF91DF91089500
:100FD000DF93CF9300D000D00F92CDB7DEB79D83C3
:100FE0008C83EC81FD810580F681E02D86819781DF
:100FF0009B838A838A819B810C960E94980D8A81AB
:101000009B819C01245F3F4F81EF90E0B9010E94DA
:10101000E80CEA81FB819689E091C000F091C10063
:101020008689981718F081E0898301C01982898127
:101030000F900F900F900F900F90CF91DF91089528
:10104000DF93CF9300D0CDB7DEB78BE090E00E9466
:10105000600B9A83898389819A81009749F0E9819D
:10106000FA811182108289819A8102960E94AE0CC7
:1010700089819A810F900F90CF91DF910895DF932E
:10108000CF93CDB7DEB760970FB6F894DEBF0FBE33
:10109000CDBF9A8789877C876B875E874D87388B22
:1010A0002F8789859A859C838B8319820E94C81A11
:1010B000EB81FC818081918198878F8389859A85D6
:1010C0002B853C85B9010E94110A2F8138858B85BB
:1010D0009C85282B392B8D859E85282339238D854A
:1010E0009E8528173907C9F42F8138858B859C8503
:1010F000822B932B9E838D83EB81FC812081318118
:101100008D859E858095909582239323EB81FC812C
:1011100091838083188A1F861CC08F8598890097C9
:1011200091F08B819C81BC016E5F7F4F8D859E8588
:101130009C0135604F855889CB01B9010E94181D6B
:101140001E821D8206C0EB81FC81808191819E837D
:101150008D830E94D41A8A838F859889009709F419
:101160003AC08A81882311F40E94A30F0E9494211F
:101170009E838D838D819E8180709270009731F562
:101180000FB6F8940F92EB81FC81808191819E8350
:101190008D832D813E818D859E85282339238D85E4
:1011A0009E852817390771F4EB81FC8120813181FC
:1011B0008D859E858095909582239323EB81FC817C
:1011C000918380830F900FBE81E089838D819E8102
:1011D00090709E838D838D819E8160960FB6F8946A
:1011E000DEBF0FBECDBFCF91DF9108950F931F9348
:1011F000DF93CF93CDB7DEB763970FB6F894DEBF1A
:101200000FBECDBF9D878C877F876E87488B298BCC
:101210001B8B0A8B8C859D859B878A871F821E82EC
:101220001B820E94C81AEA85FB85808191819A837E
:10123000898389819A812E853F85B90149890E94D8
:101240002E0B8D838D818823C1F089819A819987A6
:1012500088871B8A1A8A88898823D9F1EA85FB85C1
:10126000208131818E859F8580959095822393235F
:10127000EA85FB85918380832CC08A899B890097AE
:1012800029F489819A819987888723C0888988234E
:1012900029F08E819F8191609F838E838989882325
:1012A00029F08E819F8194609F838E838A859B85A0
:1012B000BC016E5F7F4F2E853F858E819F81282BDD
:1012C000392B4A895B89CB01B9010E94181D198607
:1012D00018860E94D41A8C838A899B89009709F406
:1012E0003BC08C81882311F40E94A30F0E9494219B
:1012F000998788878885998580709270009739F5DD
:101300000FB6F8940F92EA85FB85808191819987C9
:101310008887888599852E853F85B90149890E94EE
:101320002E0B882389F08889882371F0EA85FB8554
:10133000208131818E859F8580959095822393238E
:10134000EA85FB85918380830F900FBE1B82888581
:1013500099859070998788878885998563960FB657
:10136000F894DEBF0FBECDBFCF91DF911F910F91DB
:101370000895DF93CF93CDB7DEB728970FB6F894D3
:10138000DEBF0FBECDBF9E838D8378876F838D8137
:101390009E819C838B830FB6F8940F92EB81FC8126
:1013A000808191819A838983EB81FC8120813181C5
:1013B0008F8198858095909582239323EB81FC8182
:1013C000918380830F900FBE89819A8128960FB6F2
:1013D000F894DEBF0FBECDBFCF91DF910895DF93AC
:1013E000CF93CDB7DEB727970FB6F894DEBF0FBE09
:1013F000CDBF9F838E838E819F819C838B831D8233
:10140000EB81FC81808191819A83898389819A8192
:1014100027960FB6F894DEBF0FBECDBFCF91DF91F8
:101420000895DF93CF93CDB7DEB765970FB6F894E5
:10143000DEBF0FBECDBF9B8B8A8B7D8B6C8B1986DD
:1014400018868A899B899B838A8319828A819B81DA
:1014500002969B878A878A859B8503969D878C87C2
:101460000E94C81AEA85FB8585819681998B888BB5
:10147000EA81FB81208131818C899D89822B932B8C
:10148000EA81FB819183808359C0E889F98982814F
:1014900093819F878E87E889F989808191819F83D5
:1014A0008E8319828E819F8180709D838C838E8133
:1014B0009F8190709F838E838C819D8180709470BA
:1014C000009769F4EA81FB81208131818E819F81BF
:1014D00082239323009791F081E089830FC0EA81F2
:1014E000FB81208131818E819F81282339238E8148
:1014F0009F812817390711F481E089838981882326
:10150000C9F08C819D8180709170009741F0888531
:1015100099852E813F81822B932B99878887EA8139
:10152000FB81808191819C01326088899989B90110
:101530000E94C61D8E859F85998B888B2889398945
:101540008C859D852817390709F09FCFEA81FB819B
:101550002081318188859985809590958223932378
:10156000EA81FB81918380830E94D41AEA81FB8106
:101570008081918165960FB6F894DEBF0FBECDBF16
:10158000CF91DF910895DF93CF9300D000D000D0AA
:10159000CDB7DEB79E838D838D819E819C838B83A7
:1015A0008B819C8102969A8389830E94C81A08C005
:1015B000E981FA818581968160E072E00E94C61D12
:1015C000E981FA818081882399F78B819C810E942F
:1015D000B60B0E94D41A26960FB6F894DEBF0FBE43
:1015E000CDBFCF91DF910895DF93CF9300D000D08E
:1015F00000D0CDB7DEB79A8389834B835C836D833C
:101600007E832B813C8189819A81B9010E94110AD4
:1016100026960FB6F894DEBF0FBECDBFCF91DF91F7
:101620000895DF93CF9300D000D000D0CDB7DEB7C0
:101630009A8389834B835C836D837E832B813C817A
:1016400089819A81B9010E94B90926960FB6F8944A
:10165000DEBF0FBECDBFCF91DF910895DF93CF9353
:1016600000D000D000D0CDB7DEB79B838A837D83C6
:101670006C834E8319828E81882359F48A819B81E1
:101680002C813D8182239323009781F081E089831F
:101690000DC02A813B818C819D81282339238C8137
:1016A0009D812817390711F481E089838981269665
:1016B0000FB6F894DEBF0FBECDBFCF91DF91089576
:1016C000DF93CF9300D000D0CDB7DEB79C838B8360
:1016D0001A8219820E94C81A8091FC009091FD0024
:1016E000009731F48FEF90E09093FD008093FC0021
:1016F0008091FA009091FB002B813C81820F931F17
:1017000025E08B3D920738F52091FA003091FB00DF
:101710008B819C81280F391F8091FA009091FB00EA
:1017200082179307C0F42091FC003091FD00809156
:10173000FA009091FB00820F931F9A838983209176
:10174000FA003091FB008B819C81820F931F909354
:10175000FB008093FA000E94D41A89819A810F902D
:101760000F900F900F90CF91DF910895DF93CF935B
:1017700000D0CDB7DEB79A8389830F900F90CF91B9
:10178000DF910895DF93CF93CDB7DEB71092FB00C2
:101790001092FA00CF91DF910895DF93CF93CDB7E8
:1017A000DEB72091FA003091FB008BED95E0821BB3
:1017B000930BCF91DF910895AF92BF92CF92DF92BA
:1017C000EF92FF920F93DF93CF9300D00F92CDB79C
:1017D000DEB78B831A8219821BC089819A81FC0132
:1017E000E652F94F8AE19CE020E730E0B90145E597
:1017F00050E09F010B81EE24FF24CC24DD24AA2499
:10180000BB240E94641889819A8101969A838983F6
:1018100089819A811816190604F70F900F900F907E
:10182000CF91DF910F91FF90EF90DF90CF90BF901D
:10183000AF900895DF93CF93CDB7DEB72A970FB659
:10184000F894DEBF0FBECDBF9A8789871C821B82AA
:1018500089859A859A8389838BE790E0A0E0B0E040
:101860008D839E83AF83B8878D819E81AF81B8853C
:10187000895B9B46AC4FBF4F8D839E83AF83B887F8
:101880008D819E81AF81B8852DEF3FEF4FEF5FEFE8
:10189000BC01CD010E947D23DC01CB018D839E83A1
:1018A000AF83B8878D819E81AF81B88527E030E016
:1018B00040E050E0BC01CD010E94BE23DA01C90125
:1018C0008D839E83AF83B8878D819E81AF81B885DC
:1018D0008B3127E792072EEFA2072FEFB20721F0F7
:1018E00081E090E09C838B838B819C81009709F041
:1018F000B3CF0FB6F8940F92E981FA8181E080832B
:101900000F900FBEA9CFDF93CF9300D00F92CDB72A
:10191000DEB781E08B831A82198214C089819A8193
:10192000FC01E652F94F8081882309F41B828981EA
:101930009A81FC01E652F94F108289819A810196C1
:101940009A83898389819A81181619063CF78B81BD
:101950000F900F900F90CF91DF910895DF93CF9369
:1019600000D0CDB7DEB79A83898389819A810396A7
:10197000E981FA8192838183E981FA818FEF9FEF78
:101980009483838389819A810396E981FA8196837E
:10199000858389819A810396E981FA81908787837B
:1019A000E981FA8110820F900F90CF91DF91089515
:1019B000DF93CF9300D0CDB7DEB79A838983E981D7
:1019C000FA81118610860F900F90CF91DF910895C4
:1019D000DF93CF9300D000D000D0CDB7DEB79C838B
:1019E0008B837E836D83EB81FC81818192819A83DD
:1019F0008983ED81FE8189819A8193838283E98144
:101A0000FA8184819581ED81FE8195838483E981CA
:101A1000FA810480F581E02D8D819E8193838283FC
:101A2000E981FA818D819E8195838483ED81FE8198
:101A30008B819C8191878087EB81FC8180818F5F86
:101A4000EB81FC81808326960FB6F894DEBF0FBE33
:101A5000CDBFCF91DF910895DF93CF93CDB7DEB7A0
:101A600028970FB6F894DEBF0FBECDBF9E838D833F
:101A700078876F83EF81F885808191819A8389834C
:101A800089819A812FEF8F3F920739F4ED81FE8192
:101A9000878190859C838B8318C08D819E8103965E
:101AA0009C838B8306C0EB81FC81828193819C8324
:101AB0008B83EB81FC810280F381E02D20813181D9
:101AC00089819A818217930770F7EB81FC8182816B
:101AD0009381EF81F88593838283EF81F88502807B
:101AE000F381E02D8F81988595838483EF81F8853C
:101AF0008B819C8195838483EB81FC818F81988588
:101B000093838283EF81F8858D819E819187808781
:101B1000ED81FE8180818F5FED81FE81808328963B
:101B20000FB6F894DEBF0FBECDBFCF91DF91089501
:101B3000DF93CF9300D000D0CDB7DEB79C838B83EB
:101B4000EB81FC81808591859A838983EB81FC817F
:101B5000A281B381EB81FC818481958115969C9350
:101B60008E931497EB81FC81A481B581EB81FC817C
:101B70008281938113969C938E931297E981FA81C7
:101B8000218132818B819C812817390741F4EB81B7
:101B9000FC8184819581E981FA8192838183EB8143
:101BA000FC8111861086E981FA8180818150E9816A
:101BB000FA818083E981FA8180810F900F900F90E4
:101BC0000F90CF91DF910895DF93CF93CDB7DEB71C
:101BD00028970FB6F894DEBF0FBECDBF9C838B83D2
:101BE0007E836D8358874F83EB81FC8181E1808305
:101BF0008B819C8101979C838B83EB81FC8182E2AA
:101C000080838B819C8101979C838B83EB81FC81FA
:101C100083E380838B819C8101979C838B838D815F
:101C20009E819A8389838981EB81FC8180838B816A
:101C30009C8101979C838B8389819A81892F992725
:101C40009A8389838981EB81FC8180838B819C814C
:101C500001979C838B83EB81FC8110828B819C811B
:101C600001979C838B83EB81FC8180E880838B814F
:101C70009C8101979C838B83EB81FC8110828B81FB
:101C80009C8101979C838B83EB81FC8182E0808324
:101C90008B819C8101979C838B83EB81FC8183E00A
:101CA00080838B819C8101979C838B83EB81FC815A
:101CB00084E080838B819C8101979C838B83EB8163
:101CC000FC8185E080838B819C8101979C838B8341
:101CD000EB81FC8186E080838B819C8101979C83D2
:101CE0008B83EB81FC8187E080838B819C810197D2
:101CF0009C838B83EB81FC8188E080838B819C813A
:101D000001979C838B83EB81FC8189E080838B81AD
:101D10009C8101979C838B83EB81FC8180E1808394
:101D20008B819C8101979C838B83EB81FC8181E17A
:101D300080838B819C8101979C838B83EB81FC81C9
:101D400082E180838B819C8101979C838B83EB81D3
:101D5000FC8183E180838B819C8101979C838B83B1
:101D6000EB81FC8184E180838B819C8101979C8342
:101D70008B83EB81FC8185E180838B819C81019742
:101D80009C838B83EB81FC8186E180838B819C81AA
:101D900001979C838B83EB81FC8187E180838B811E
:101DA0009C8101979C838B83EB81FC8188E18083FC
:101DB0008B819C8101979C838B83EB81FC8189E1E2
:101DC00080838B819C8101979C838B83EB81FC8139
:101DD00080E280838B819C8101979C838B83EB8144
:101DE000FC8181E280838B819C8101979C838B8322
:101DF000EB81FC8182E280838B819C8101979C83B3
:101E00008B83EB81FC8183E280838B819C810197B2
:101E10009C838B838F8198859A8389838981EB81C9
:101E2000FC8180838B819C8101979C838B8389813A
:101E30009A81892F99279A8389838981EB81FC81F3
:101E400080838B819C8101979C838B83EB81FC81B8
:101E500086E280838B819C8101979C838B83EB81BD
:101E6000FC8187E280838B819C8101979C838B839B
:101E7000EB81FC8188E280838B819C8101979C832C
:101E80008B83EB81FC8189E280838B819C8101972C
:101E90009C838B83EB81FC8180E380838B819C819D
:101EA00001979C838B83EB81FC8181E380838B8111
:101EB0009C8101979C838B838B819C8128960FB694
:101EC000F894DEBF0FBECDBFCF91DF910895DF93B1
:101ED000CF93CDB7DEB70E945910A091DB06B09129
:101EE000DC06CD91CDBFDD91DEBFFF91EF91DF919B
:101EF000CF91BF91AF919F918F917F916F915F91A2
:101F00004F913F912F911F910F91FF90EF90DF9094
:101F1000CF90BF90AF909F908F907F906F905F9089
:101F20004F903F902F901F900F900FBE0F900895ED
:101F300081E0CF91DF910895DF93CF93CDB7DEB7E6
:101F4000CF91DF9108950F920FB6F8940F921F92E0
:101F500011242F923F924F925F926F927F928F92B5
:101F60009F92AF92BF92CF92DF92EF92FF920F9328
:101F70001F932F933F934F935F936F937F938F9311
:101F80009F93AF93BF93CF93DF93EF93FF93A09172
:101F9000DB06B091DC060DB60D920EB60D920E94D6
:101FA0007A1CA091DB06B091DC06CD91CDBFDD910E
:101FB000DEBFFF91EF91DF91CF91BF91AF919F91E4
:101FC0008F917F916F915F914F913F912F911F91D1
:101FD0000F91FF90EF90DF90CF90BF90AF909F90C8
:101FE0008F907F906F905F904F903F902F901F90B9
:101FF0000F900FBE0F9008950F920FB6F8940F92A6
:102000001F9211242F923F924F925F926F927F9274
:102010008F929F92AF92BF92CF92DF92EF92FF92F8
:102020000F931F932F933F934F935F936F937F93E0
:102030008F939F93AF93BF93CF93DF93EF93FF93D0
:10204000A091DB06B091DC060DB60D920EB60D9296
:102050000E94931B882311F00E947A1CA091DB063A
:10206000B091DC06CD91CDBFDD91DEBFFF91EF9148
:10207000DF91CF91BF91AF919F918F917F916F91A0
:102080005F914F913F912F911F910F91FF90EF9092
:10209000DF90CF90BF90AF909F908F907F906F9088
:1020A0005F904F903F902F901F900F900FBE0F901A
:1020B0000895DF93CF9300D000D000D0CDB7DEB726
:1020C00080E49FE1A0E0B0E08B839C83AD83BE837E
:1020D0008B819C81AD81BE81689415F8B695A795DA
:1020E000979587951694D1F78B839C83AD83BE8398
:1020F0008B819C81AD81BE810197A109B1098B8340
:102100009C83AD83BE838B8189838B819C81AD81D0
:10211000BE81892F9A2FAB2FBB278B839C83AD83E6
:10212000BE838B818A83EBE4F0E08A818083EAE4DA
:10213000F0E0898180838BE08983EEE4F0E089819F
:102140008083E9E5F0E080818983898180618983EA
:10215000E9E5F0E08981808326960FB6F894DEBF2A
:102160000FBECDBFCF91DF9108950E94FC0F18954F
:10217000DF93CF9300D000D00F92CDB7DEB79C8312
:102180008B836D838B819C819A8389830FB6F894AE
:102190000F92E981FA8140815181E981FA81838D31
:1021A000282F30E0E981FA81848D882F90E0BC01EE
:1021B000269FC001279F900D369F900D1124840FFC
:1021C000951FE981FA8193838283E981FA81128ED6
:1021D000E981FA8180819181E981FA819583848303
:1021E000E981FA8140815181E981FA81838D882FCB
:1021F00090E09C0121503040E981FA81848D882F44
:1022000090E0BC01269FC001279F900D369F900D46
:102210001124840F951FE981FA8197838683E981D0
:10222000FA818FEF858FE981FA818FEF868F8D811B
:10223000882379F4E981FA8180858823A1F0898156
:102240009A8108960E945B1D813069F40E94A30F59
:102250000AC089819A8108960E94AE0C89819A8170
:1022600041960E94AE0C0F900FBE81E00F900F9030
:102270000F900F900F90CF91DF910895DF93CF9340
:10228000CDB7DEB729970FB6F894DEBF0FBECDBF2E
:102290008F83688749871A8219828F81882309F47E
:1022A0003FC08FE190E00E94600B9E838D838D8103
:1022B0009E810097A9F18F81282F30E08885882F93
:1022C00090E0AC01249FC001259F900D349F900D9C
:1022D000112401969C838B838B819C810E94600BCF
:1022E000ED81FE8191838083ED81FE8180819181EA
:1022F000009791F0ED81FE818F81838FED81FE81CA
:102300008885848F8D819E8161E00E94B8108D81C7
:102310009E819A83898304C08D819E810E94B60B21
:1023200089819A8129960FB6F894DEBF0FBECDBF82
:10233000CF91DF910895DF93CF9300D00F92CDB767
:10234000DEB78B838FE190E00E94600B9A838983D4
:1023500089819A810097A9F1E981FA811382128219
:10236000E981FA8111821082E981FA811582148251
:10237000E981FA8117821682E981FA81128EE98158
:10238000FA8181E0838FE981FA81148EE981FA81F3
:102390008FEF858FE981FA818FEF868F89819A810E
:1023A00008960E94AE0C89819A8141960E94AE0CDB
:1023B00089819A8160E070E040E050E020E00E9476
:1023C000091289819A810F900F900F90CF91DF9120
:1023D0000895DF93CF9300D000D0CDB7DEB78B83C5
:1023E0006C838B8160E042E00E943E119A83898376
:1023F00089819A81009721F0E981FA818C81828F0D
:1024000089819A810F900F900F900F90CF91DF915B
:102410000895DF93CF93CDB7DEB72F970FB6F8941B
:10242000DEBF0FBECDBF998788877B876A875D87B0
:102430004C872E871C82888599859A8389830FB65D
:10244000F8940F92E981FA81928DE981FA81838D66
:10245000981718F08E85823011F589819A812A8526
:102460003B85B9014E850E94FB148B83E981FA817B
:102470008189882351F089819A8141960E945B1D50
:10248000813041F40E94A30F05C08B81882311F095
:102490000E94A30F0F900FBE81E08F875CC08C85D8
:1024A0009D85009721F40F900FBE1F8654C08C812C
:1024B000882331F4CE0105960E942B1E81E08C8387
:1024C0000F900FBE0E94C81A0FB6F8940F92E981C0
:1024D000FA81858D8F3F19F4E981FA81158EE981A2
:1024E000FA81868D8F3F19F4E981FA81168E0F905B
:1024F0000FBECE0105969E01245F3F4FB9010E9499
:10250000441E882309F589819A810E9484168823B4
:10251000A1F089819A8108962C853D85B9010E9498
:10252000E31C89819A810E94FB150E94D41A88239A
:1025300009F085CF0E94A30F82CF89819A810E94E2
:10254000FB150E94D41A7BCF89819A810E94FB15CA
:102550000E94D41A1F868F852F960FB6F894DEBF7F
:102560000FBECDBFCF91DF910895DF93CF93CDB74D
:10257000DEB72B970FB6F894DEBF0FBECDBF9E839C
:102580008D8378876F835A8749872B878D819E81BA
:102590009A8389831B82E981FA81928DE981FA818C
:1025A000838D981718F08B858230B1F589819A81D7
:1025B0002F813885B9014B850E94FB14882341F097
:1025C00089859A85009721F0E985FA8581E08083E5
:1025D000E981FA81868D8F3FA9F4E981FA818189A9
:1025E0008823B9F089819A8141960E945B1D8823D6
:1025F00081F089859A85009761F0E985FA8581E007
:10260000808307C0E981FA81868D8F5FE981FA8135
:10261000868F81E08C8301C01C828C812B960FB643
:10262000F894DEBF0FBECDBFCF91DF910895DF9349
:10263000CF93CDB7DEB760970FB6F894DEBF0FBE6D
:10264000CDBF9A8789877C876B875E874D872F8769
:102650001D8289859A859A8389830FB6F8940F9293
:10266000E981FA81828D882309F44BC0E981FA81DE
:10267000868197819C838B8389819A812B853C8578
:10268000B9010E94B4158F85882311F5E981FA817B
:10269000828D8150E981FA81828FE981FA8180817E
:1026A0009181009731F40E94BB21E981FA819383E3
:1026B0008283E981FA8180858823F1F089819A817A
:1026C00008960E945B1D8130B9F40E94A30F14C0CC
:1026D000E981FA818B819C8197838683E981FA81E4
:1026E0008189882349F089819A8141960E945B1DE6
:1026F000882311F00E94A30F0F900FBE81E0888BFA
:102700006DC08D859E85009721F40F900FBE188AAD
:1027100065C08D81882331F4CE0106960E942B1E60
:1027200081E08D830F900FBE0E94C81A0FB6F894F7
:102730000F92E981FA81858D8F3F19F4E981FA8141
:10274000158EE981FA81868D8F3F19F4E981FA812E
:10275000168E0F900FBECE0106969E01235F3F4F4F
:10276000B9010E94441E882391F589819A810E94B3
:102770004F16882329F1E981FA81808191810097A0
:1027800059F40FB6F8940F92E981FA81828193810E
:102790000E9497200F900FBE89819A8141962D85C6
:1027A0003E85B9010E94E31C89819A810E94FB1534
:1027B0000E94D41A882309F050CF0E94A30F4DCF56
:1027C00089819A810E94FB150E94D41A46CF898183
:1027D0009A810E94FB150E94D41A188A88896096F3
:1027E0000FB6F894DEBF0FBECDBFCF91DF91089535
:1027F000DF93CF93CDB7DEB72A970FB6F894DEBF3D
:102800000FBECDBF9E838D8378876F835A8749879C
:102810008D819E819A8389831B82E981FA81828DD1
:10282000882391F189819A812F813885B9010E948D
:10283000B415E981FA81828D8150E981FA81828F14
:10284000E981FA81858D8F3FA9F4E981FA8180853C
:102850008823B9F089819A8108960E945B1D88239C
:1028600081F089859A85009761F0E985FA8581E094
:10287000808307C0E981FA81858D8F5FE981FA81C4
:10288000858F81E08C8301C01C828C812A960FB6D3
:10289000F894DEBF0FBECDBFCF91DF910895DF93D7
:1028A000CF93CDB7DEB72A970FB6F894DEBF0FBE31
:1028B000CDBF98878F837A8769878F8198859A8320
:1028C00089831D82E981FA81828D8823B1F0E981B3
:1028D000FA81868197819C838B8389819A8129855E
:1028E0003A85B9010E94B415E981FA818B819C81F6
:1028F0009783868381E08E8301C01E828E812A9613
:102900000FB6F894DEBF0FBECDBFCF91DF91089513
:10291000DF93CF9300D00F92CDB7DEB79B838A832E
:102920000FB6F8940F92EA81FB81828D89830F9014
:102930000FBE89810F900F900F90CF91DF91089576
:10294000DF93CF9300D000D00F92CDB7DEB79D8339
:102950008C838C819D819A8389830FB6F8940F9222
:10296000E981FA81938DE981FA81828D292F281BD3
:10297000822F8B830F900FBE8B810F900F900F9043
:102980000F900F90CF91DF910895DF93CF9300D0F8
:102990000F92CDB7DEB79B838A83EA81FB81828D5C
:1029A000898389810F900F900F90CF91DF910895C7
:1029B000DF93CF9300D000D0CDB7DEB79C838B835D
:1029C0008B819C819A838983E981FA8180819181BD
:1029D000009731F0E981FA81808191810E94B60BE4
:1029E00089819A810E94B60B0F900F900F900F90E3
:1029F000CF91DF910895DF93CF9300D000D000D026
:102A0000CDB7DEB79B838A837D836C834E83198227
:102A1000EA81FB81848D882399F4EA81FB8180819E
:102A20009181009709F08FC0EA81FB8182819381B7
:102A30000E9422218983EA81FB811382128283C052
:102A40008E81882399F5EA81FB8164817581EA8111
:102A5000FB81848D482F50E02C813D81CB01B90151
:102A60000E94F723EA81FB8124813581EA81FB8181
:102A7000848D882F90E0820F931FEA81FB819583DC
:102A80008483EA81FB8124813581EA81FB81828113
:102A900093812817390708F456C0EA81FB818081A9
:102AA0009181EA81FB81958384834DC0EA81FB811A
:102AB00066817781EA81FB81848D482F50E02C81EB
:102AC0003D81CB01B9010E94F723EA81FB81268178
:102AD0003781EA81FB81848D882F90E090958195E4
:102AE0009F4F820F931FEA81FB8197838683EA8140
:102AF000FB8126813781EA81FB81808191812817C2
:102B0000390790F4EA81FB8122813381EA81FB81DC
:102B1000848D882F90E0909581959F4F820F931F11
:102B2000EA81FB81978386838E81823061F4EA811A
:102B3000FB81828D882339F0EA81FB81828D81506F
:102B4000EA81FB81828FEA81FB81828D8F5FEA813E
:102B5000FB81828F898126960FB6F894DEBF0FBE67
:102B6000CDBFCF91DF910895DF93CF9300D000D0F8
:102B7000CDB7DEB79A8389837C836B83E981FA8141
:102B8000848D882389F1E981FA8126813781E98161
:102B9000FA81848D882F90E0820F931FE981FA815A
:102BA00097838683E981FA8126813781E981FA81D9
:102BB000828193812817390740F0E981FA81808169
:102BC0009181E981FA8197838683E981FA8146813F
:102BD0005781E981FA81848D282F30E08B819C8197
:102BE000BA01A9010E94F7230F900F900F900F9048
:102BF000CF91DF910895DF93CF9300D0CDB7DEB7AB
:102C00009A8389830FB6F8940F9215C0E981FA81EF
:102C100081898823A9F089819A8141960E945B1D50
:102C2000882311F00E94A71EE981FA81868D8150C8
:102C3000E981FA81868FE981FA81868D181634F34D
:102C4000E981FA818FEF868F0F900FBE0FB6F8944F
:102C50000F9215C0E981FA8180858823A9F08981C6
:102C60009A8108960E945B1D882311F00E94A71E7E
:102C7000E981FA81858D8150E981FA81858FE98129
:102C8000FA81858D181634F3E981FA818FEF858FEB
:102C90000F900FBE0F900F90CF91DF910895DF93AB
:102CA000CF9300D00F92CDB7DEB79B838A830FB648
:102CB000F8940F92EA81FB81828D882319F481E0D8
:102CC000898301C019820F900FBE89810F900F90E8
:102CD0000F90CF91DF910895DF93CF9300D00F92A3
:102CE000CDB7DEB79B838A83EA81FB81828D8823FF
:102CF00019F481E0898301C0198289810F900F90B6
:102D00000F90CF91DF910895DF93CF9300D00F9272
:102D1000CDB7DEB79B838A830FB6F8940F92EA8112
:102D2000FB81928DEA81FB81838D981719F481E0F4
:102D3000898301C019820F900FBE89810F900F9077
:102D40000F90CF91DF910895DF93CF9300D00F9232
:102D5000CDB7DEB79B838A83EA81FB81928DEA81BE
:102D6000FB81838D981719F481E0898301C0198252
:102D700089810F900F900F90CF91DF910895DF938D
:102D8000CF93CDB7DEB72A970FB6F894DEBF0FBE4C
:102D9000CDBF9D838C837F836E83598748878C81C9
:102DA0009D819A838983F89489819A810E948416EF
:102DB0008823A9F088859985009771F089819A8187
:102DC0009C01285F3F4F88859985B9010E94DC05E9
:102DD00078948CEF8A872AC078941A8627C07894D2
:102DE000F894E981FA81928DE981FA81838D9817AF
:102DF000C8F489819A812E813F81B90140E00E9407
:102E0000FB1481E08B83E981FA818189882359F061
:102E100089819A8141960E94E807882321F08BEFEF
:102E20008B8301C01B8278948B818A878A852A963E
:102E30000FB6F894DEBF0FBECDBFCF91DF910895DE
:102E4000DF93CF93CDB7DEB72A970FB6F894DEBFE6
:102E50000FBECDBF9D838C837F836E835987488748
:102E60008C819D819A838983F894E981FA81828D8E
:102E70008823A9F488859985009771F089819A81C2
:102E80009C012F5E3F4F88859985B9010E94DC0522
:102E900078948CEF8A8758C078941A8655C07894B5
:102EA000F894E981FA81828D882309F449C0E98187
:102EB000FA8126813781E981FA81848D882F90E01B
:102EC000820F931FE981FA8197838683E981FA81D2
:102ED00026813781E981FA81828193812817390718
:102EE00040F0E981FA8180819181E981FA819783BB
:102EF0008683E981FA81828D8150E981FA81828F0E
:102F0000E981FA8146815781E981FA81848D282FF0
:102F100030E08E819F81BA01A9010E94F72381E0F0
:102F20008B83E981FA818085882359F089819A8190
:102F300008960E94E807882321F08BEF8B8301C05D
:102F40001B8278948B818A878A852A960FB6F8949B
:102F5000DEBF0FBECDBFCF91DF910895DF93CF933A
:102F6000CDB7DEB728970FB6F894DEBF0FBECDBF42
:102F70009C838B837E836D834F838B819C819A831B
:102F80008983E981FA81928DE981FA81838D98178D
:102F9000D0F489819A812D813E81B90140E00E945F
:102FA000FB148F81882379F4E981FA818189882350
:102FB00051F089819A8141960E94E807882319F08F
:102FC00081E0888702C08F818887888528960FB620
:102FD000F894DEBF0FBECDBFCF91DF910895DF9390
:102FE000CF93CDB7DEB729970FB6F894DEBF0FBEEB
:102FF000CDBF9D838C837F836E83598748878C8167
:103000009D819A838983E981FA81828D882309F4DD
:1030100050C0E981FA8126813781E981FA81848D66
:10302000882F90E0820F931FE981FA81978386832E
:10303000E981FA8126813781E981FA818281938150
:103040002817390740F0E981FA8180819181E9816F
:10305000FA8197838683E981FA81828D8150E981A3
:10306000FA81828FE981FA8146815781E981FA816B
:10307000848D282F30E08E819F81BA01A9010E94A2
:10308000F723E885F9858081882381F4E981FA8135
:103090008085882359F089819A8108960E94E807E3
:1030A000882321F0E885F98581E0808381E08B83A6
:1030B00001C01B828B8129960FB6F894DEBF0FBE2C
:1030C000CDBFCF91DF910895AF92BF92CF92DF92A3
:1030D000EF92FF920F931F93DF93CF93CDB7DEB79D
:1030E00064970FB6F894DEBF0FBECDBF9F838E836B
:1030F000798768875B874A873D872C870E87F88AA0
:10310000EF86DA8AC98ABC8AAB8A8A859B85298937
:103110003A89B9010E9400209C838B838B819C811A
:10312000009709F48DC0EB81FC812789308D8A8559
:103130009B850197820F931F9A8389838B819C8142
:1031400028853985EB89FC89AA85BB85B9014E851F
:103150009F018D010E94C11E89819A812E813F812C
:103160004C855D85B9010E94E40DEB81FC81918362
:1031700080838F859889009731F0EF85F8898B815E
:103180009C81918380830FB6F8940F928091DE0624
:103190008F5F8093DE068091DB069091DC060097BE
:1031A00069F48B819C819093DC068093DB0680918F
:1031B000DE068130A9F40E943B1F12C08091E20616
:1031C000882371F4E091DB06F091DC0696898E8508
:1031D000891730F08B819C819093DC068093DB060D
:1031E0008091E6068F5F8093E606EB81FC819689ED
:1031F0008091E106891728F4EB81FC818689809310
:10320000E106EB81FC818689282F30E0C901880F17
:10321000991F880F991F880F991F820F931FAC0168
:103220004851594F8B819C819C012E5F3F4FCA01B1
:10323000B9010E94E80C81E08D830F900FBE02C09F
:103240008FEF8D838D81813071F48091E206882328
:1032500051F0E091DB06F091DC0696898E85981797
:1032600010F40E94A30F8D8164960FB6F894DEBF10
:103270000FBECDBFCF91DF911F910F91FF90EF90C7
:10328000DF90CF90BF90AF900895DF93CF9300D0A1
:1032900000D000D0CDB7DEB79C838B830FB6F894F7
:1032A0000F928B819C81009739F48091DB0690917D
:1032B000DC069E838D8304C08B819C819E838D83DD
:1032C0008D819E819A83898389819A8102960E9449
:1032D000980DE981FA8184899589009729F089817F
:1032E0009A810C960E94980D89819A819C012E5F8B
:1032F0003F4F8BE297E0B9010E94E80C8091DD0618
:103300008F5F8093DD068091E6068F5F8093E606EF
:103310000F900FBE8091E206882399F02091DB0682
:103320003091DC0689819A818217930719F40E94F3
:10333000A30F07C00FB6F8940F920E945A200F9067
:103340000FBE26960FB6F894DEBF0FBECDBFCF914D
:10335000DF910895DF93CF93CDB7DEB72A970FB6ED
:10336000F894DEBF0FBECDBF98878F837A876987B9
:103370001B820E94C81A8091DF069091E0069A8312
:103380008983EF81F8852081318189859A85820F33
:10339000931F9E838D83EF81F88520813181898100
:1033A0009A818217930798F4EF81F8852081318103
:1033B0008D819E8182179307E0F42D813E81898162
:1033C0009A8182179307A8F481E08B8312C0EF8162
:1033D000F885208131818D819E818217930738F095
:1033E0002D813E8189819A818217930710F481E0B3
:1033F0008B83EF81F8858D819E81918380838B8182
:10340000882359F08091DB069091DC0602960E9499
:10341000980D8D819E810E94B71F0E94D41A8C83C3
:103420008C81882311F40E94A30F2A960FB6F8947A
:10343000DEBF0FBECDBFCF91DF910895DF93CF9355
:1034400000D000D00F92CDB7DEB79D838C83198258
:103450008C819D810097D1F00E94C81A2091DF06CF
:103460003091E0068C819D81820F931F9B838A831C
:103470008091DB069091DC0602960E94980D8A816D
:103480009B810E94B71F0E94D41A89838981882357
:1034900011F40E94A30F0F900F900F900F900F90B8
:1034A000CF91DF910895DF93CF93CDB7DEB7279704
:1034B0000FB6F894DEBF0FBECDBF9D838C830FB6D1
:1034C000F8940F928C819D81009739F48091DB06EE
:1034D0009091DC069F838E8304C08C819D819F83A5
:1034E0008E838E819F819B838A83EA81FB8186897B
:1034F00089830F900FBE898127960FB6F894DEBF9F
:103500000FBECDBFCF91DF910895AF92BF92CF9202
:10351000DF92EF92FF920F93DF93CF930F92CDB78D
:10352000DEB781EB9EE128E730E0B90145E550E0E8
:1035300020E030E000E0EE24FF24CC24DD24AA24A7
:10354000BB240E94641889838981813051F4F894E6
:1035500081E08093E2061092E0061092DF060E945E
:10356000670F0F90CF91DF910F91FF90EF90DF9059
:10357000CF90BF90AF900895DF93CF93CDB7DEB7D4
:10358000F8941092E2060E949C0FCF91DF9108956B
:10359000DF93CF93CDB7DEB78091E7068F5F80933F
:1035A000E706CF91DF910895DF93CF9300D00F927C
:1035B000CDB7DEB719820FB6F8940F928091E70667
:1035C00081508093E7068091E706882309F06DC05B
:1035D0008091DE06882309F468C045C0E091270782
:1035E000F0912807868197819B838A838A819B81BA
:1035F0000C960E94980D8A819B8102960E94980DDC
:10360000EA81FB8196898091E106891728F4EA8195
:10361000FB8186898093E106EA81FB818689282FD8
:1036200030E0C901880F991F880F991F880F991FD3
:10363000820F931FAC014851594F8A819B819C0195
:103640002E5F3F4FCA01B9010E94E80CEA81FB815D
:103650009689E091DB06F091DC068689981718F0D0
:1036600081E08093E40680912207882309F0B6CF99
:103670008091E306882389F00CC00E94931B882365
:1036800019F081E08093E4068091E30681508093F5
:10369000E3068091E306882381F78091E406813078
:1036A00021F481E089830E94A30F0F900FBE8981CE
:1036B0000F900F900F90CF91DF910895DF93CF93EC
:1036C00000D0CDB7DEB70FB6F8940F928091DF0629
:1036D0009091E0069A8389830F900FBE89819A8129
:1036E0000F900F90CF91DF910895DF93CF9300D08B
:1036F0000F92CDB7DEB719828091DF069091E00678
:103700009B838A838A819B810F900F900F90CF912A
:10371000DF910895DF93CF93CDB7DEB78091DE06BA
:10372000CF91DF910895DF93CF93CDB7DEB729977F
:103730000FB6F894DEBF0FBECDBF1D828091E706A5
:10374000882309F0C2C08091DF069091E0060196BF
:103750009093E0068093DF068091DF069091E0066B
:103760009C838B838B819C810097D9F480911E0769
:1037700090911F079A838983809120079091210758
:1037800090931F0780931E0789819A819093210748
:10379000809320078091E5068F5F8093E5060E9465
:1037A0005A202091B5003091B6008B819C81821700
:1037B000930708F471C0E0911E07F0911F07808104
:1037C000882339F48FEF9FEF9093B6008093B50074
:1037D00063C0E0911E07F0911F070580F681E02D80
:1037E0008681978199878887E885F9858281938189
:1037F0009F838E832B813C818E819F81281739077F
:1038000038F48E819F819093B6008093B50044C0B8
:103810008885998502960E94980DE885F9858489A6
:103820009589009729F0888599850C960E94980DB6
:10383000E885F98596898091E106891728F4E8855D
:10384000F98586898093E106E885F9858689282FA0
:1038500030E0C901880F991F880F991F880F991FA1
:10386000820F931FAC014851594F888599859C015F
:103870002E5F3F4FCA01B9010E94E80CE885F98527
:103880009689E091DB06F091DC068689981708F4AA
:1038900092CF81E08D838FCFE091DB06F091DC0643
:1038A0008689282F30E0C901880F991F880F991F3A
:1038B000880F991F820F931FFC01E851F94F8081F7
:1038C000823040F081E08D8305C08091E3068F5FF8
:1038D0008093E3068091E406882311F081E08D83D4
:1038E0008D8129960FB6F894DEBF0FBECDBFCF9164
:1038F000DF910895DF93CF9300D0CDB7DEB78091ED
:10390000E706882321F081E08093E40657C01092F7
:10391000E40605C08091E10681508093E106809124
:10392000E106282F30E0C901880F991F880F991FE1
:10393000880F991F820F931FFC01E851F94F808176
:10394000882341F38091E106282F30E0C901880FD8
:10395000991F880F991F880F991F820F931F8851F5
:10396000994F9A838983E981FA810180F281E02D60
:1039700082819381E981FA8192838183E981FA814D
:103980002181328189819A8103962817390759F458
:10399000E981FA810180F281E02D82819381E981C0
:1039A000FA8192838183E981FA810180F281E02D9D
:1039B000868197819093DC068093DB060F900F90B1
:1039C000CF91DF910895DF93CF9300D000D000D046
:1039D000CDB7DEB79C838B837E836D838091DB06BE
:1039E0009091DC069C01245F3F4F8B819C81B90143
:1039F0000E942C0D8091DB069091DC0602960E94BD
:103A0000980D2091DF063091E0068D819E81820F16
:103A1000931F9A83898389819A810E94B71F269672
:103A20000FB6F894DEBF0FBECDBFCF91DF910895E2
:103A3000DF93CF93CDB7DEB728970FB6F894DEBFEC
:103A40000FBECDBF9C838B837E836D8358874F834E
:103A5000E091DB06F091DC068D819E819068958770
:103A600084878091DB069091DC069C01245F3F4FA8
:103A70008B819C81B9010E94E80C8091DB069091BA
:103A8000DC0602960E94980D2091DF063091E00638
:103A90008F819885820F931F9A83898389819A8168
:103AA0000E94B71F28960FB6F894DEBF0FBECDBF99
:103AB000CF91DF910895DF93CF9300D000D00F9284
:103AC000CDB7DEB79D838C83EC81FD810580F681C7
:103AD000E02D868197819B838A838A819B810C96C6
:103AE0000E94980D8091E706882361F58A819B8169
:103AF00002960E94980DEA81FB8196898091E106E9
:103B0000891728F4EA81FB8186898093E106EA819E
:103B1000FB818689282F30E0C901880F991F880F03
:103B2000991F880F991F820F931FAC014851594F5D
:103B30008A819B819C012E5F3F4FCA01B9010E947F
:103B4000E80C0AC08A819B819C01245F3F4F82E27E
:103B500097E0B9010E94E80CEA81FB819689E09127
:103B6000DB06F091DC068689891730F481E08983D1
:103B700081E08093E40601C0198289810F900F9043
:103B80000F900F900F90CF91DF910895DF93CF9317
:103B9000CDB7DEB727970FB6F894DEBF0FBECDBF07
:103BA0009D838C837F836E838E819F819068EC815F
:103BB000FD8191838083EC81FD81868197819B8348
:103BC0008A838C819D810E94980D8A819B810296B7
:103BD0000E94980DEA81FB8196898091E106891700
:103BE00028F4EA81FB8186898093E106EA81FB81E2
:103BF0008689282F30E0C901880F991F880F991FE7
:103C0000880F991F820F931FAC014851594F8A8129
:103C10009B819C012E5F3F4FCA01B9010E94E80CB5
:103C2000EA81FB819689E091DB06F091DC068689CA
:103C3000891730F481E0898381E08093E40601C034
:103C40001982898127960FB6F894DEBF0FBECDBFCB
:103C5000CF91DF910895DF93CF9300D0CDB7DEB73A
:103C60009A8389838091E506E981FA818083809136
:103C7000DF069091E006E981FA81928381830F90BB
:103C80000F90CF91DF910895DF93CF93CDB7DEB73B
:103C900027970FB6F894DEBF0FBECDBF9D838C83F0
:103CA0007F836E830FB6F8940F928091DF06909118
:103CB000E0069A838983EC81FD8190818091E506FD
:103CC000981761F0EC81FD812181328189819A818F
:103CD0008217930718F081E08B832DC0EC81FD8162
:103CE0002181328189819A81AC01421B530B9A0157
:103CF000EE81FF818081918128173907D0F4EE8110
:103D0000FF8140815181EC81FD8121813281898156
:103D10009A81B901681B790BCB01840F951FEE8145
:103D2000FF81918380838C819D810E942B1E1B8249
:103D300002C081E08B830F900FBE8B8127960FB658
:103D4000F894DEBF0FBECDBFCF91DF910895DF9312
:103D5000CF93CDB7DEB781E08093E406CF91DF91BA
:103D60000895DF93CF9300D0CDB7DEB79A838983D0
:103D70000E94781F8091E8068230D0F30E94A30F42
:103D8000F7CF0F931F93DF93CF93CDB7DEB72A976B
:103D90000FB6F894DEBF0FBECDBF9B838A837D83B1
:103DA0006C834E8338872F831A870987198221C035
:103DB0008981482F50E08981282F30E08C819D81B6
:103DC000FC01E20FF31F20818A819B81840F951FE4
:103DD000FC01799620838981282F30E08C819D8198
:103DE000FC01E20FF31F8081882331F089818F5F0E
:103DF000898389818431E0F2EA81FB8114A68E8176
:103E0000843010F083E08E83EA81FB818E81868B83
:103E1000EA81FB818E8185A7EA81FB8116A68A81D2
:103E20009B8102960E94D80C8A819B810C960E94ED
:103E3000D80CEA81FB818A819B81918780878E8162
:103E4000282F30E084E090E0821B930BEA81FB8115
:103E500095878487EA81FB818A819B81938B828B02
:103E60002A960FB6F894DEBF0FBECDBFCF91DF917B
:103E70001F910F910895DF93CF930F92CDB7DEB7C7
:103E8000198213C08981282F30E0C901880F991F3A
:103E9000880F991F880F991F820F931F8851994F80
:103EA0000E94AE0C89818F5F89838981843050F3B1
:103EB0008CE097E00E94AE0C85E197E00E94AE0C8A
:103EC00082E297E00E94AE0C8BE297E00E94AE0C7B
:103ED0008CE097E090931F0780931E0785E197E0A1
:103EE00090932107809320070F90CF91DF91089541
:103EF000DF93CF9300D00F92CDB7DEB72EC00E94D4
:103F0000C81A80912B071B82882311F481E08B83D0
:103F10000E94D41A8B81882301F50FB6F8940F9272
:103F2000E0913007F0913107868197819A838983E8
:103F300089819A8102960E94980D8091DE068150B7
:103F40008093DE068091DD0681508093DD060F9020
:103F50000FBE89819A810E9444208091DD068823CA
:103F600071F60F900F900F90CF91DF910895DF932E
:103F7000CF9300D0CDB7DEB79A838983E091DB067B
:103F8000F091DC0689819A81938382832091DF06F8
:103F90003091E00689819A818217930770F48091AD
:103FA0002007909121072091DB063091DC062E5FDF
:103FB0003F4FB9010E942C0D1EC040911E07509129
:103FC0001F078091DB069091DC069C012E5F3F4F1E
:103FD000CA01B9010E942C0D2091B5003091B600A4
:103FE00089819A818217930730F489819A8190930D
:103FF000B6008093B5000F900F90CF91DF91089598
:10400000DF93CF93CDB7DEB728970FB6F894DEBF16
:104010000FBECDBF9C838B837E836D838FE290E048
:104020000E94600B9A83898389819A81009709F1A4
:104030008D819E81009739F48B819C810E94600B59
:1040400098878F8304C08D819E8198878F83E981B3
:10405000FA818F819885908F878BE981FA81878992
:10406000908D009731F489819A810E94B60B1A8253
:10407000198289819A8128960FB6F894DEBF0FBE07
:10408000CDBFCF91DF910895DF93CF9300D0CDB70F
:10409000DEB79A838983E981FA818789908D0E94AE
:1040A000B60B89819A810E94B60B0F900F90CF9129
:1040B000DF910895DF93CF9300D0CDB7DEB7E091C5
:1040C0001E07F0911F078081882339F48FEF9FEF3F
:1040D0009093B6008093B50013C0E0911E07F09155
:1040E0001F070580F681E02D868197819A83898359
:1040F000E981FA81828193819093B6008093B50023
:104100000F900F90CF91DF910895DF93CF9300D060
:10411000CDB7DEB78091DB069091DC069A83898368
:1041200089819A810F900F90CF91DF910895DF934D
:10413000CF9300D000D0CDB7DEB79C838B838B812B
:104140009C819A8389838B819C81009709F473C039
:10415000E981FA819689E091DB06F091DC06868997
:10416000981708F068C0E981FA81848595859923BC
:104170007CF0E091DB06F091DC068689282F30E0A8
:1041800084E090E0821B930BE981FA819587848714
:10419000E981FA8142855385E981FA818689282F50
:1041A00030E0C901880F991F880F991F880F991F48
:1041B000820F931F8851994F48175907A1F589819C
:1041C0009A8102960E94980DE091DB06F091DC0640
:1041D0008689E981FA81868BE981FA8196898091C5
:1041E000E106891728F4E981FA8186898093E1063E
:1041F000E981FA818689282F30E0C901880F991F4B
:10420000880F991F880F991F820F931FAC01485187
:10421000594F89819A819C012E5F3F4FCA01B90194
:104220000E94E80C08C0E091DB06F091DC0686896C
:10423000E981FA81868B0F900F900F900F90CF91AC
:10424000DF910895DF93CF9300D000D00F92CDB7C8
:10425000DEB79D838C838C819D819B838A831982A9
:104260008C819D81009709F456C0EA81FB8186A567
:104270008150EA81FB8186A7EA81FB819689EA81E8
:10428000FB8185A5981709F446C0EA81FB8186A5C4
:10429000882309F040C08A819B8102960E94980D74
:1042A000EA81FB8185A5EA81FB81868BEA81FB811E
:1042B0008689282F30E084E090E0821B930BEA810E
:1042C000FB8195878487EA81FB8196898091E1064D
:1042D000891728F4EA81FB8186898093E106EA81C7
:1042E000FB818689282F30E0C901880F991F880F2C
:1042F000991F880F991F820F931FAC014851594F86
:104300008A819B819C012E5F3F4FCA01B9010E94A7
:10431000E80C81E0898389810F900F900F900F90B6
:104320000F90CF91DF910895DF93CF9300D0CDB759
:10433000DEB7E091DB06F091DC06848595859A83F3
:104340008983A091DB06B091DC06E091DB06F09159
:10435000DC068689282F30E084E090E0821B930BF6
:104360001D969C938E931C9789819A810F900F9034
:10437000CF91DF910895DF93CF93CDB7DEB78091D2
:10438000DB069091DC06009739F0E091DB06F091B6
:10439000DC0686A58F5F86A78091DB069091DC0600
:1043A000CF91DF910895AF92BF92CF92DF92EF92BB
:1043B000FF920F93DF93CF93CDB7DEB70E946623B2
:1043C00083E064E140E00E943E11909337078093C0
:1043D000360783E593E260E070E044E650E020E0D9
:1043E00030E001E0EE24FF24CC24DD24AA24BB2409
:1043F0000E9464188AE292E260E070E044E650E0D5
:1044000020E030E002E0EE24FF24CC24DD24AA24C6
:10441000BB240E94641881EB92E260E070E04AEFF6
:1044200050E020E030E003E0EE24FF24CC24DD2443
:10443000AA24BB240E9464180E94851A80E090E0A0
:10444000CF91DF910F91FF90EF90DF90CF90BF90D1
:10445000AF900895DF93CF93CDB7DEB766970FB6D1
:10446000F894DEBF0FBECDBF9E8B8D8B1A8ACE0116
:1044700042960E94FE03882309F06EC01982CE0185
:10448000029660E070E04EE050E00E9400241BC005
:104490008981282F30E04A89CE010296FC01E20F83
:1044A000F31F408389818F5F898389818F3098F4DE
:1044B00004C085E090E00E941E1ACE0142960E9440
:1044C000FE038230B1F38A898D3011F704C085E094
:1044D00090E00E941E1ACE0142960E94FE03823096
:1044E000B1F3198ACE01439660E070E042E050E0FB
:1044F0000E94002419821BC08981282F30E04A893C
:10450000CE014396FC01E20FF31F408389818F5F48
:1045100089838981833070F404C085E090E00E9433
:104520001E1ACE0142960E94FE038230B1F38A89A0
:104530008D3011F7CE0143960E94D923898B80914B
:104540003607909137079E012E5F3F4FB9014FEF1D
:104550005FEF20E00E9409128AE090E00E941E1A9C
:1045600086CFDF93CF93CDB7DEB7C75AD0400FB613
:10457000F894DEBF0FBECDBFFE01EA55FF4F918319
:1045800080831982198228C08981882F90E09E013A
:104590002E5F3F4F82959295907F9827807F982736
:1045A000820F931F60E070E04FE050E00E94002413
:1045B0008981882F90E09C0122953295307F3227A7
:1045C000207F3227CE010196820F931FFC01709647
:1045D000108289818F5F898389818A30A8F219824C
:1045E00040913607509137078981882F90E0829556
:1045F0009295907F9827807F98279E012E5F3F4F4E
:10460000280F391FCA01B9014FEF5FEF20E00E9468
:104610001713882329F38DE790E00E9433048981E2
:104620008F5C0E941C048AE990E00E943304898117
:10463000882F90E09E012E5F3F4F82959295907F4C
:104640009827807F9827820F931F0E9433048EE95A
:1046500090E00E9433048981882F90E09C0122958C
:104660003295307F3227207F3227CE010196820F8C
:10467000931FFC0170968081882F90E09E012E553B
:104680003F4FB9014AE050E00E940724CE018E5509
:104690009F4F0E9433048EE990E00E943304898189
:1046A0008F5F89839DCFDF93CF9300D0CDB7DEB7E7
:1046B0009A838983A5E3B0E0E5E3F0E0808180950B
:1046C0008C9388EE93E00E941E1AF4CFDF93CF9371
:1046D000CDB7DEB782E061E00E94DD0282E060E0FB
:1046E0000E941E0380E895E20E94A90381EA90E0FF
:1046F0000E943304CF91DF910895629FD001739F90
:10470000F001829FE00DF11D649FE00DF11D929F6D
:10471000F00D839FF00D749FF00D659FF00D9927AC
:10472000729FB00DE11DF91F639FB00DE11DF91FD0
:10473000BD01CF0111240895A1E21A2EAA1BBB1BB3
:10474000FD010DC0AA1FBB1FEE1FFF1FA217B3075D
:10475000E407F50720F0A21BB30BE40BF50B661F73
:10476000771F881F991F1A9469F760957095809537
:1047700090959B01AC01BD01CF01089597FB092ED7
:1047800005260ED057FD04D0D7DF0AD0001C38F420
:1047900050954095309521953F4F4F4F5F4F08956D
:1047A000F6F790958095709561957F4F8F4F9F4F4D
:1047B0000895FC0188279927E89421912032E9F394
:1047C000293010F02E30C8F32B3241F02D3239F45D
:1047D000689404C00E942824820F911D21912053C7
:1047E0002A30C0F31EF4909581959F4F0895FB01E8
:1047F000DC0102C001900D9241505040D8F708955D
:10480000DC0101C06D9341505040E0F70895FB0179
:104810009F01E8944230C4F04532B4F44A3029F4A0
:1048200097FB1EF4909581959F4F642F77270E94E8
:104830004024805D8A330CF0895D8193CB01009721
:10484000A1F716F45DE251931082C9010C94302453
:104850007AE0979F902D879F802D910D11240895C8
:10486000DC01FC01672F71917723E1F7329704C0D7
:104870007C916D9370836291AE17BF07C8F3089562
:10488000AA1BBB1B51E107C0AA1FBB1FA617B70776
:1048900010F0A61BB70B881F991F5A95A9F7809592
:0C48A0009095BC01CD010895F894FFCF65
:1048AC0051436F6E734E42005150726F644E420012
:1048BC00496E744D6174680049444C45004E6577EF
:1048CC002053747564656E7420646174613A200DB4
:1048DC000A53747564656E7420003A0D0A000D0A53
:1048EC000053797374656D20537461727465642E12
:0848FC002E2E0D0A00FFFF0043
:00000001FF
