:100000000C942A000C9447000C9447000C94470071
:100010000C9447000C9447000C9447000C94E52185
:100020000C9447000C9447000C9447000C94470034
:100030000C9447000C9447000C9447000C94470024
:100040000C9447000C9447000C9447000C94470014
:100050000C94470011241FBECFE5D8E0DEBFCDBF12
:1000600011E0A0E6B0E0E8E7F6E602C005900D92E8
:10007000A23AB107D9F717E0A2EAB1E001C01D9298
:10008000AF30B107E1F70E94AE110C943A330C94F3
:100090000000EF92FF920F931F937B018C0120E0F1
:1000A00030E040E05FE40E94490388238CF0C801FF
:1000B000B70120E030E040E05FE40E94C1010E940F
:1000C000A9039B01AC01205030404040504806C07D
:1000D000C801B7010E94A9039B01AC01B901CA0183
:1000E0001F910F91FF90EF900895A0E0B0E0EBE733
:1000F000F0E00C94CD32DC012B01FA019C9192309E
:1001000008F439C1EB018881823008F433C194309E
:1001100069F4843009F02FC111969C91119789815F
:10012000981709F428C1A7E5B1E025C1843009F486
:1001300021C18230A9F4923009F01DC19A01AD01AC
:1001400088E0EA010990AE01E90109929E0181501F
:10015000C1F7E201898111969C918923818308C1AD
:10016000923009F407C112962D903C901397EB0141
:100170008A819B811496AD90BD90CD90DC901797AD
:10018000EC80FD800E811F819101281B390BB90184
:1001900037FF04C066277727621B730B6032710537
:1001A0000CF061C0121613066CF537014801062EDB
:1001B00004C096948794779467940A94D2F721E0C8
:1001C00030E040E050E004C0220F331F441F551FB1
:1001D0006A95D2F721503040404050402E213F21B7
:1001E00040235123211531054105510521F021E01E
:1001F00030E040E050E079018A01E628F72808293C
:1002000019293CC0232BD1F1260E371E350146019A
:10021000062E04C096948794779467940A94D2F734
:1002200021E030E040E050E004C0220F331F441FC3
:10023000551F6A95D2F721503040404050402A2146
:100240003B214C215D21211531054105510521F04E
:1002500021E030E040E050E059016A01A628B728CB
:10026000C828D9280BC0821593052CF01C01AA249C
:10027000BB24650103C0EE24FF24870111969C91E5
:10028000D20111968C91981709F445C0992339F041
:10029000A80197012A193B094C095D0906C0A6016E
:1002A00095012E193F09400B510B57FD08C01182D3
:1002B0003382228224833583468357831DC081E0A5
:1002C00081833382228288279927DC01821B930B4A
:1002D000A40BB50B84839583A683B7830DC0220F2F
:1002E000331F441F551F24833583468357838281E0
:1002F000938101979383828324813581468157813D
:10030000DA01C9010197A109B1098F5F9F4FAF4F72
:10031000BF4328F30BC0918333822282EA0CFB1C7B
:100320000C1D1D1DE482F5820683178383E0808304
:10033000248135814681578157FF1AC0C901AA27F8
:1003400097FDA095BA2F81709070A070B0705695EF
:10035000479537952795822B932BA42BB52B848318
:100360009583A683B7838281938101969383828349
:10037000DF0101C0D201CD01CDB7DEB7E2E10C94BF
:10038000E932A0E2B0E0E7ECF1E00C94D932698305
:100390007A838B839C832D833E834F835887E9E048
:1003A000EE2EF12CEC0EFD1ECE010196B7010E943F
:1003B000D2048E010F5E1F4FCE010596B8010E9438
:1003C000D2048A8991E089278A8BC701B801AE01DE
:1003D000475E5F4F0E9475000E94FD03A096E6E015
:1003E0000C94F532A0E2B0E0E8EFF1E00C94D932E1
:1003F00069837A838B839C832D833E834F835887C5
:10040000F9E0EF2EF12CEC0EFD1ECE010196B701A6
:100410000E94D2048E010F5E1F4FCE010596B801D7
:100420000E94D204C701B801AE01475E5F4F0E942F
:1004300075000E94FD03A096E6E00C94F532A0E260
:10044000B0E0E5E2F2E00C94CD3269837A838B83ED
:100450009C832D833E834F835887CE010196BE0136
:10046000675F7F4F0E94D204CE010596BE016F5E8A
:100470007F4F0E94D2049985923088F0898982301A
:10048000C8F0943019F4823051F404C0843029F457
:10049000923081F487E591E0C6C0923049F420E0C3
:1004A0009A858A89981321E02A87CE010996BBC0D4
:1004B000823049F420E09A858A89981321E02A8BBA
:1004C000CE014196B0C02D843E844F8458886D88FB
:1004D0007E888F88988CEE24FF248701AA24BB2471
:1004E000650140E050E060E070E0E0E0F0E0C10174
:1004F00081709070892BE9F0E60CF71C081D191D1E
:100500009A01AB012A0D3B1D4C1D5D1D80E090E062
:10051000A0E0B0E0E614F7040805190520F481E036
:1005200090E0A0E0B0E0BA01A901480F591F6A1F8E
:100530007B1FAA0CBB1CCC1CDD1C97FE08C081E0F5
:1005400090E0A0E0B0E0A82AB92ACA2ADB2A3196B6
:10055000E032F10549F0660C771C881C991C569412
:10056000479437942794C3CFFA85EA892B893C892D
:100570008B859C85280F391F2E5F3F4F17C0CA01FE
:1005800081709070892B61F016950795F794E79428
:1005900080E090E0A0E0B0E8E82AF92A0A2B1B2BC3
:1005A00076956795579547952F5F3F4F77FDE7CF36
:1005B0000CC0440F551F661F771F17FD4160EE0CDE
:1005C000FF1C001F111F21503040403090E05907A0
:1005D00090E0690790E4790760F32B8F3C8FDB0193
:1005E000CA018F779070A070B07080349105A1051A
:1005F000B10561F447FD0AC0E114F10401051105DC
:1006000029F0405C5F4F6F4F7F4F40781A8EFE1786
:1006100011F081E08A8F4D8F5E8F6F8F78A383E01A
:10062000898FCE0149960E94FD03A096E2E10C94C9
:10063000E932A8E1B0E0EFE1F3E00C94D93269834C
:100640007A838B839C832D833E834F83588789E0F5
:10065000E82EF12CEC0EFD1ECE010196B7010E9492
:10066000D2048E010F5E1F4FCE010596B8010E9485
:10067000D2048985823040F08989823028F0C70110
:10068000B8010E944A0501C08FEF6896E6E00C941D
:10069000F532A8E1B0E0EFE4F3E00C94D9326983DD
:1006A0007A838B839C832D833E834F83588789E095
:1006B000E82EF12CEC0EFD1ECE010196B7010E9432
:1006C000D2048E010F5E1F4FCE010596B8010E9425
:1006D000D2048985823040F08989823028F0C701B0
:1006E000B8010E944A0501C08FEF6896E6E00C94BD
:1006F000F532A8E1B0E0EFE7F3E00C94D93269837A
:100700007A838B839C832D833E834F83588789E034
:10071000E82EF12CEC0EFD1ECE010196B7010E94D1
:10072000D2048E010F5E1F4FCE010596B8010E94C4
:10073000D2048985823040F08989823028F0C7014F
:10074000B8010E944A0501C081E06896E6E00C9479
:10075000F532ACE0B0E0EFEAF3E00C94DD3269830F
:100760007A838B839C83CE010196BE016B5F7F4FA2
:100770000E94D2048D81823061F1823050F1843048
:1007800021F48E81882351F12EC02F81388537FDC9
:1007900020C06E812F3131051CF06623F9F023C093
:1007A0008EE190E0821B930B29853A854B855C8511
:1007B00004C056954795379527958A95D2F76623B5
:1007C000B1F050954095309521953F4F4F4F5F4F79
:1007D0000EC020E030E040E050E009C02FEF3FEFD6
:1007E0004FEF5FE704C020E030E040E050E8B9019F
:1007F000CA012C96E2E00C94F932DF92EF92FF925C
:100800000F931F93FC01E480F58006811781D1804E
:100810008081823048F480E090E0A0E1B0E0E82AF6
:10082000F92A0A2B1B2BA5C0843009F49FC0823003
:1008300021F4EE24FF24870105C0E114F104010531
:10084000110519F4E0E0F0E096C0628173819FEF3A
:10085000623879070CF05BC022E83FEF261B370BAC
:100860002A3131052CF020E030E040E050E02AC091
:10087000B801A701022E04C0769567955795479554
:100880000A94D2F781E090E0A0E0B0E004C0880FC5
:10089000991FAA1FBB1F2A95D2F70197A109B10979
:1008A0008E219F21A023B1230097A105B10521F03E
:1008B00081E090E0A0E0B0E09A01AB01282B392B59
:1008C0004A2B5B2BDA01C9018F779070A070B07052
:1008D00080349105A105B10539F427FF09C0205CDA
:1008E0003F4F4F4F5F4F04C0215C3F4F4F4F5F4F13
:1008F000E0E0F0E02030A0E03A07A0E04A07A0E402
:100900005A0710F0E1E0F0E079018A0127C0603871
:10091000710564F5FB01E158FF4FD801C7018F77DE
:100920009070A070B07080349105A105B10539F4C4
:10093000E7FE0DC080E490E0A0E0B0E004C08FE3EB
:1009400090E0A0E0B0E0E80EF91E0A1F1B1F17FFA1
:1009500005C016950795F794E794319687E01695AC
:100960000795F794E7948A95D1F705C0EE24FF2404
:100970008701EFEFF0E06E2F679566276795902F60
:100980009F77D794DD24D7948E2F8695492F462BB9
:10099000582F5D29B701CA011F910F91FF90EF9069
:1009A000DF900895FC01DB01408151812281622F9B
:1009B0006F7770E0221F2227221F9381892F880FD3
:1009C000822B282F30E0991F9927991F11969C930D
:1009D000119721153105A9F54115510561057105DD
:1009E00011F482E037C082E89FEF13969C938E93B8
:1009F00012979A01AB0167E0220F331F441F551F66
:100A00006A95D1F783E08C930DC0220F331F441FEA
:100A1000551F12968D919C911397019713969C9355
:100A20008E931297203080E0380780E0480780E4FA
:100A3000580758F314962D933D934D935C93179755
:100A400008952F3F310579F4411551056105710570
:100A500019F484E08C93089564FF03C081E08C93C3
:100A600012C01C9210C02F57304013963C932E9307
:100A7000129783E08C9387E0440F551F661F771F02
:100A80008A95D1F7706414964D935D936D937C9322
:100A9000179708951F93DC01FB019C91923008F495
:100AA00047C08081823008F443C0943051F41196DD
:100AB0001C91843099F58181682F70E0611B710968
:100AC0003FC0843021F0923031F48230B9F181811D
:100AD000882389F12DC011961C9111978230F1F075
:100AE00081811817D9F412962D913C911397828128
:100AF00093818217930794F028173907BCF0149656
:100B00008D919D910D90BC91A02D248135814681C0
:100B10005781281739074A075B0718F4112341F05A
:100B20000AC082179307A407B50740F4112319F0F0
:100B300061E070E005C06FEF7FEF02C060E070E041
:100B4000CB011F910895DF93CF93CDB7DEB7A7E216
:100B5000B0E0E7E2F0E080818F778C93A7E2B0E02D
:100B6000E7E2F0E0808180648C93A7E2B0E0E7E206
:100B7000F0E080818F7D8C93A6E2B0E0E6E2F0E0C9
:100B8000808184608C93A6E2B0E0E6E2F0E08081B0
:100B900082608C93A6E2B0E0E6E2F0E080818E7F96
:100BA0008C93A6E2B0E0E6E2F0E0808180688C936E
:100BB000CF91DF910895DF93CF930F92CDB7DEB73A
:100BC0008983A7E2B0E0E7E2F0E08081807E8C9349
:100BD000A7E2B0E0E7E2F0E090818981892B8C9375
:100BE000A6E2B0E0E6E2F0E0808180648C9304C08D
:100BF0008AE090E00E94DA2AE6E2F0E080818295C5
:100C00008F70882F90E081709070009789F3A6E232
:100C1000B0E0E6E2F0E0808180618C93E4E2F0E015
:100C2000808191810F90CF91DF910895DF93CF93D1
:100C300000D000D0CDB7DEB789837B836A83A7E27B
:100C4000B0E0E7E2F0E08081807E8C93A7E2B0E044
:100C5000E7E2F0E090818981892B8C93E6E2F0E075
:100C600080818295869586958370882F90E081702B
:100C70009070982F81E08927882339F0A6E2B0E0B0
:100C8000E6E2F0E0808180648C93E6E2F0E080812F
:100C900082958F70882F90E081709070009719F482
:100CA00082E08C830FC0A6E2B0E0E6E2F0E0808153
:100CB00080618C93E4E2F0E080819181EA81FB81A4
:100CC00080831C828C810F900F900F900F90CF919A
:100CD000DF910895DF93CF93CDB7DEB727970FB697
:100CE000F894DEBF0FBECDBF89836A834B838981B1
:100CF000843008F0EEC08A81883008F0EAC08B8129
:100D0000813009F06FC08981282F30E03F832E8326
:100D10008E819F818130910549F12E813F81223062
:100D200031052CF48E819F81009761F0D2C02E8115
:100D30003F812230310571F18E819F818330910591
:100D4000E9F1C7C0ABE3B0E0EBE3F0E08081482F0E
:100D50008A81282F30E081E090E0022E02C0880FC7
:100D6000991F0A94E2F7842B8C93B3C0A8E3B0E0F8
:100D7000E8E3F0E08081482F8A81282F30E081E08D
:100D800090E0022E02C0880F991F0A94E2F7842B8C
:100D90008C939FC0A5E3B0E0E5E3F0E08081482FAD
:100DA0008A81282F30E081E090E0022E02C0880F77
:100DB000991F0A94E2F7842B8C938BC0A2E3B0E0D6
:100DC000E2E3F0E08081482F8A81282F30E081E043
:100DD00090E0022E02C0880F991F0A94E2F7842B3C
:100DE0008C9377C08B81882309F073C08981282F69
:100DF00030E03D832C838C819D818130910559F1B8
:100E00002C813D81223031052CF48C819D8100970D
:100E100069F05FC02C813D812230310589F18C81E0
:100E20009D818330910509F440C053C0ABE3B0E02D
:100E3000EBE3F0E08081482F8A81282F30E081E0C9
:100E400090E0022E02C0880F991F0A94E2F7809565
:100E500084238C933EC0A8E3B0E0E8E3F0E0808117
:100E6000482F8A81282F30E081E090E0022E02C0D6
:100E7000880F991F0A94E2F7809584238C9329C0E8
:100E8000A5E3B0E0E5E3F0E08081482F8A81282FD8
:100E900030E081E090E0022E02C0880F991F0A9492
:100EA000E2F7809584238C9314C0A2E3B0E0E2E3E0
:100EB000F0E08081482F8A81282F30E081E090E0A7
:100EC000022E02C0880F991F0A94E2F780958423AE
:100ED0008C9327960FB6F894DEBF0FBECDBFCF918F
:100EE000DF910895DF93CF9300D000D00F92CDB75C
:100EF000DEB78A836B838A81843008F06CC08B8173
:100F0000883008F068C08A81282F30E03D832C8328
:100F10004C815D814130510541F18C819D81823050
:100F2000910534F42C813D812115310561F055C0C6
:100F30004C815D814230510551F18C819D8183301E
:100F40009105B9F14AC0E9E3F0E08081282F30E053
:100F50008B81882F90E0A90102C0559547958A950D
:100F6000E2F7CA018170898338C0E6E3F0E080814E
:100F7000282F30E08B81882F90E0A90102C0559581
:100F800047958A95E2F7CA018170898326C0E3E319
:100F9000F0E08081282F30E08B81882F90E0A9013C
:100FA00002C0559547958A95E2F7CA0181708983F9
:100FB00014C0E0E3F0E08081282F30E08B81882F9F
:100FC00090E0A90102C0559547958A95E2F7CA01BC
:100FD0008170898302C08FEF898389810F900F9080
:100FE0000F900F900F90CF91DF910895DF93CF93E3
:100FF000CDB7DEB727970FB6F894DEBF0FBECDBFD3
:1010000089836A834B838981843008F0EEC08A81AA
:10101000883008F0EAC08B81813009F06FC0898187
:10102000282F30E03F832E838E819F818130910570
:1010300049F12E813F81223031052CF48E819F8130
:10104000009761F0D2C02E813F812230310571F1CD
:101050008E819F8183309105E9F1C7C0AAE3B0E09A
:10106000EAE3F0E08081482F8A81282F30E081E098
:1010700090E0022E02C0880F991F0A94E2F7842B99
:101080008C93B3C0A7E3B0E0E7E3F0E08081482FA2
:101090008A81282F30E081E090E0022E02C0880F84
:1010A000991F0A94E2F7842B8C939FC0A4E3B0E0CD
:1010B000E4E3F0E08081482F8A81282F30E081E04E
:1010C00090E0022E02C0880F991F0A94E2F7842B49
:1010D0008C938BC0A1E3B0E0E1E3F0E08081482F86
:1010E0008A81282F30E081E090E0022E02C0880F34
:1010F000991F0A94E2F7842B8C9377C08B81882305
:1011000009F073C08981282F30E03D832C838C81C6
:101110009D818130910559F12C813D81223031052D
:101120002CF48C819D81009769F05FC02C813D81FA
:101130002230310589F18C819D818330910509F43C
:1011400040C053C0AAE3B0E0EAE3F0E08081482F5A
:101150008A81282F30E081E090E0022E02C0880FC3
:10116000991F0A94E2F7809584238C933EC0A7E3ED
:10117000B0E0E7E3F0E08081482F8A81282F30E05B
:1011800081E090E0022E02C0880F991F0A94E2F7D6
:10119000809584238C9329C0A4E3B0E0E4E3F0E0DD
:1011A0008081482F8A81282F30E081E090E0022E54
:1011B00002C0880F991F0A94E2F7809584238C93CC
:1011C00014C0A1E3B0E0E1E3F0E08081482F8A8120
:1011D000282F30E081E090E0022E02C0880F991F96
:1011E0000A94E2F7809584238C9327960FB6F8949F
:1011F000DEBF0FBECDBFCF91DF910895DF93CF93B8
:1012000000D000D0CDB7DEB789836A838981282FCB
:1012100030E03C832B838B819C8181309105D1F020
:101220002B813C81223031052CF48B819C810097ED
:1012300061F01EC02B813C812230310581F08B8111
:101240009C818330910581F013C0EAE3F0E08A814C
:1012500080830EC0E7E3F0E08A81808309C0E4E385
:10126000F0E08A81808304C0E1E3F0E08A8180833A
:101270000F900F900F900F90CF91DF910895DF9313
:10128000CF9300D000D0CDB7DEB789836A83898140
:10129000282F30E03C832B838B819C81813091050A
:1012A000D1F02B813C81223031052CF48B819C8143
:1012B000009761F01EC02B813C812230310581F006
:1012C0008B819C818330910581F013C0EBE3F0E0CA
:1012D0008A8180830EC0E8E3F0E08A81808309C0C0
:1012E000E5E3F0E08A81808304C0E2E3F0E08A81F4
:1012F00080830F900F900F900F90CF91DF91089502
:10130000DF93CF9300D000D0CDB7DEB79C838B8323
:101310008B819C81CC01A0E0B0E0880F991FAA1FAF
:10132000BB1F880F991FAA1FBB1F880F991FAA1FD9
:10133000BB1F880F991FAA1FBB1F9C01AD0180E036
:1013400092E1AAE7B0E0BC01CD010E949032DA013F
:10135000C90101979A838983E9E2F0E0898180835A
:10136000E0E4F0E089819A81892F99278083E0E485
:10137000F0E086E88083EAE2F0E088E180830F9085
:101380000F900F900F90CF91DF910895DF93CF933F
:10139000CDB7DEB7EBE2F0E080818823DCF7ECE24A
:1013A000F0E08081CF91DF910895DF93CF9300D05B
:1013B0000F92CDB7DEB79A838983EBE2F0E08081AC
:1013C000882344F4ECE2F0E08081E981FA818083B3
:1013D0001B8202C082E08B838B810F900F900F9055
:1013E000CF91DF910895DF93CF930F92CDB7DEB702
:1013F0008983EBE2F0E08081882F90E0807290702A
:101400000097B9F3ECE2F0E0898180830F90CF91EF
:10141000DF910895DF93CF9300D000D0CDB7DEB732
:101420009C838B831A8219820FC029813A818B8118
:101430009C81FC01E20FF31F80810E94F3098981E6
:101440009A8101969A83898329813A818B819C8133
:10145000FC01E20FF31F8081882339F70F900F9072
:101460000F900F90CF91DF9108950F931F93DF930B
:10147000CF93CDB7DEB7C455D0400FB6F894DEBFDA
:101480000FBECDBF82E06FEF0E94FE0883E065E0F3
:1014900041E00E94F60783E066E041E00E94F60723
:1014A00083E067E041E00E94F607FE01EF5AFF4F3C
:1014B00080E090E0A0EFB1E480839183A283B383C6
:1014C0008E01035B1F4FFE01EF5AFF4F6081718158
:1014D0008281938120E030E04AEF54E40E941F02B1
:1014E000DC01CB01F80180839183A283B383FE01E9
:1014F000E35BFF4F608171818281938120E030E066
:1015000040E85FE30E947903882344F4FE01E55B31
:10151000FF4F81E090E09183808364C0FE01E35B34
:10152000FF4F608171818281938120E03FEF4FE71F
:1015300057E40E94190318160CF043C0FE01EF5A3D
:10154000FF4F608171818281938120E030E040E231
:1015500051E40E941F02DC01CB018E01055B1F4F8D
:10156000BC01CD010E944900DC01CB01F80191834F
:1015700080831FC0FE01E75BFF4F88EC90E0918302
:101580008083FE01E75BFF4F808191810197F1F736
:10159000FE01E75BFF4F91838083DE01A55BBF4FB8
:1015A000FE01E55BFF4F80819181019711969C932D
:1015B0008E93FE01E55BFF4F808191810097D1F60C
:1015C00027C08E01055B1F4FFE01E35BFF4F60816B
:1015D0007181828193810E944900DC01CB01F80175
:1015E00091838083DE01A95BBF4FFE01E55BFF4F66
:1015F000808191818D939C93FE01E95BFF4F8081F7
:1016000091810197F1F7FE01E95BFF4F91838083A0
:1016100082E00E94700DFE01ED5BFF4F80E090E0E4
:10162000A0E7B1E480839183A283B3838E01015C40
:101630001F4FFE01ED5BFF4F6081718182819381BD
:1016400020E030E04AEF54E40E941F02DC01CB01AD
:10165000F80180839183A283B383FE01FF966081AA
:1016600071818281938120E030E040E85FE30E9455
:10167000790388232CF481E090E09EAF8DAF46C0C3
:10168000FE01FF96608171818281938120E03FEFAE
:101690004FE757E40E941903181664F5FE01ED5B4D
:1016A000FF4F608171818281938120E030E040E2D0
:1016B00051E40E941F02DC01CB01BC01CD010E945C
:1016C0004900DC01CB019EAF8DAF0FC088EC90E0EC
:1016D0009CAF8BAF8BAD9CAD0197F1F79CAF8BAFFF
:1016E0008DAD9EAD01979EAF8DAF8DAD9EAD009738
:1016F00069F716C0FE01FF96608171818281938136
:101700000E944900DC01CB019EAF8DAF8DAD9EAD37
:101710009AAF89AF89AD9AAD0197F1F79AAF89AFCA
:1017200088E30E94700D80E090E0A0E8BFE38DABFD
:101730009EABAFABB8AF6DA97EA98FA998AD20E0E5
:1017400030E04AEF54E40E941F02DC01CB0189AB78
:101750009AABABABBCAB69A97AA98BA99CA920E0D9
:1017600030E040E85FE30E94790388232CF481E0B5
:1017700090E098AB8FA73FC069A97AA98BA99CA9D3
:1017800020E03FEF4FE757E40E94190318164CF58D
:101790006DA97EA98FA998AD20E030E040E251E428
:1017A0000E941F02DC01CB01BC01CD010E94490057
:1017B000DC01CB0198AB8FA70FC088EC90E09EA70F
:1017C0008DA78DA59EA50197F1F79EA78DA78FA543
:1017D00098A9019798AB8FA78FA598A9009769F74B
:1017E00014C069A97AA98BA99CA90E944900DC01AF
:1017F000CB0198AB8FA78FA598A99CA78BA78BA58A
:101800009CA50197F1F79CA78BA78CE00E94700D17
:1018100080E090E0A0E8BFE38FA398A7A9A7BAA7AC
:101820006FA178A589A59AA520E030E04AEF54E49D
:101830000E941F02DC01CB018BA39CA3ADA3BEA31E
:101840006BA17CA18DA19EA120E030E040E85FE388
:101850000E94790388232CF481E090E09AA389A365
:101860003FC06BA17CA18DA19EA120E03FEF4FE77F
:1018700057E40E94190318164CF56FA178A589A5A5
:101880009AA520E030E040E251E40E941F02DC0112
:10189000CB01BC01CD010E944900DC01CB019AA320
:1018A00089A30FC088EC90E098A38F8F8F8D98A1AB
:1018B0000197F1F798A38F8F89A19AA101979AA315
:1018C00089A389A19AA1009769F714C06BA17CA193
:1018D0008DA19EA10E944900DC01CB019AA389A39E
:1018E00089A19AA19E8F8D8F8D8D9E8D0197F1F785
:1018F0009E8F8D8F81E00E94700D80E090E0A0E7C8
:10190000B1E4898F9A8FAB8FBC8F698D7A8D8B8D67
:101910009C8D20E030E04AEF54E40E941F02DC017D
:10192000CB018D8B9E8BAF8BB88F6D897E898F8914
:10193000988D20E030E040E85FE30E94790388233F
:101940002CF481E090E09C8B8B8B3FC06D897E896D
:101950008F89988D20E03FEF4FE757E40E941903ED
:1019600018164CF5698D7A8D8B8D9C8D20E030E0BA
:1019700040E251E40E941F02DC01CB01BC01CD0119
:101980000E944900DC01CB019C8B8B8B0FC088EC43
:1019900090E09A8B898B89899A890197F1F79A8BC4
:1019A000898B8B899C8901979C8B8B8B8B899C89DC
:1019B000009769F714C06D897E898F89988D0E9480
:1019C0004900DC01CB019C8B8B8B8B899C89988B8C
:1019D0008F878F8598890197F1F7988B8F8786E09D
:1019E0000E94700D80E090E0A0E0B0E48B879C87BF
:1019F000AD87BE876B857C858D859E8520E030E038
:101A00004AEF54E40E941F02DC01CB018F839887C8
:101A1000A987BA876F81788589859A8520E030E02B
:101A200040E85FE30E94790388232CF481E090E092
:101A30009E838D833FC06F81788589859A8520E05C
:101A40003FEF4FE757E40E94190318164CF56B85DA
:101A50007C858D859E8520E030E040E251E40E9447
:101A60001F02DC01CB01BC01CD010E944900DC0159
:101A7000CB019E838D830FC088EC90E09C838B8389
:101A80008B819C810197F1F79C838B838D819E8153
:101A900001979E838D838D819E81009769F714C085
:101AA0006F81788589859A850E944900DC01CB0188
:101AB0009E838D838D819E819A83898389819A817A
:101AC0000197F1F79A838983CC5ADF4F0FB6F894C8
:101AD000DEBF0FBECDBFCF91DF911F910F91089553
:101AE000DF93CF93CDB7DEB76D970FB6F894DEBF17
:101AF0000FBECDBF8D8F83E065E040E00E946A0697
:101B000083E066E040E00E946A0683E067E041E02F
:101B10000E946A0682E06D8D0E943F0983E067E0C3
:101B200040E00E946A0680E090E0A0E8BFE3898F71
:101B30009A8FAB8FBC8F698D7A8D8B8D9C8D20E0B9
:101B400030E04AEF54E40E941F02DC01CB018D8B90
:101B50009E8BAF8BB88F6D897E898F89988D20E0A1
:101B600030E040E85FE30E94790388232CF481E0B1
:101B700090E09C8B8B8B3FC06D897E898F89988D7F
:101B800020E03FEF4FE757E40E94190318164CF589
:101B9000698D7A8D8B8D9C8D20E030E040E251E4A0
:101BA0000E941F02DC01CB01BC01CD010E94490053
:101BB000DC01CB019C8B8B8B0FC088EC90E09A8B67
:101BC000898B89899A890197F1F79A8B898B8B89FF
:101BD0009C8901979C8B8B8B8B899C89009769F7DB
:101BE00014C06D897E898F89988D0E944900DC011F
:101BF000CB019C8B8B8B8B899C89988B8F878F8556
:101C000098890197F1F7988B8F8783E067E041E02F
:101C10000E946A0680E090E0A0E8BFE38B879C8783
:101C2000AD87BE876B857C858D859E8520E030E005
:101C30004AEF54E40E941F02DC01CB018F83988796
:101C4000A987BA876F81788589859A8520E030E0F9
:101C500040E85FE30E94790388232CF481E090E060
:101C60009E838D833FC06F81788589859A8520E02A
:101C70003FEF4FE757E40E94190318164CF56B85A8
:101C80007C858D859E8520E030E040E251E40E9415
:101C90001F02DC01CB01BC01CD010E944900DC0127
:101CA000CB019E838D830FC088EC90E09C838B8357
:101CB0008B819C810197F1F79C838B838D819E8121
:101CC00001979E838D838D819E81009769F714C053
:101CD0006F81788589859A850E944900DC01CB0156
:101CE0009E838D838D819E819A83898389819A8148
:101CF0000197F1F79A8389836D960FB6F894DEBF4A
:101D00000FBECDBFCF91DF910895DF93CF93CDB7B5
:101D1000DEB76D970FB6F894DEBF0FBECDBF8D8FC7
:101D200083E065E041E00E946A0683E066E040E00F
:101D30000E946A0683E067E041E00E946A0682E052
:101D40006D8D0E943F0983E067E040E00E946A06D3
:101D500080E090E0A0E8BFE3898F9A8FAB8FBC8FC3
:101D6000698D7A8D8B8D9C8D20E030E04AEF54E4B4
:101D70000E941F02DC01CB018D8B9E8BAF8BB88F35
:101D80006D897E898F89988D20E030E040E85FE39F
:101D90000E94790388232CF481E090E09C8B8B8B4C
:101DA0003FC06D897E898F89988D20E03FEF4FE796
:101DB00057E40E94190318164CF5698D7A8D8B8DA6
:101DC0009C8D20E030E040E251E40E941F02DC01E3
:101DD000CB01BC01CD010E944900DC01CB019C8BF1
:101DE0008B8B0FC088EC90E09A8B898B89899A89BC
:101DF0000197F1F79A8B898B8B899C8901979C8B32
:101E00008B8B8B899C89009769F714C06D897E89BB
:101E10008F89988D0E944900DC01CB019C8B8B8BB4
:101E20008B899C89988B8F878F8598890197F1F78B
:101E3000988B8F8783E067E041E00E946A0680E02C
:101E400090E0A0E8BFE38B879C87AD87BE876B855A
:101E50007C858D859E8520E030E04AEF54E40E9429
:101E60001F02DC01CB018F839887A987BA876F8116
:101E7000788589859A8520E030E040E85FE30E941C
:101E8000790388232CF481E090E09E838D833FC00A
:101E90006F81788589859A8520E03FEF4FE757E489
:101EA0000E94190318164CF56B857C858D859E85DF
:101EB00020E030E040E251E40E941F02DC01CB014F
:101EC000BC01CD010E944900DC01CB019E838D83C2
:101ED0000FC088EC90E09C838B838B819C81019761
:101EE000F1F79C838B838D819E8101979E838D83E7
:101EF0008D819E81009769F714C06F8178858985EF
:101F00009A850E944900DC01CB019E838D838D81DF
:101F10009E819A83898389819A810197F1F79A83B7
:101F200089836D960FB6F894DEBF0FBECDBFCF91FB
:101F3000DF910895DF93CF93CDB7DEB761970FB6EA
:101F4000F894DEBF0FBECDBF998B888B1F861F868E
:101F500080C08F85282F30E088899989FC01E20FA5
:101F6000F31F80810E94850E80E090E0A0E0B0E445
:101F70008B879C87AD87BE876B857C858D859E858D
:101F800020E030E04AEF54E40E941F02DC01CB0164
:101F90008F839887A987BA876F81788589859A8585
:101FA00020E030E040E85FE30E94790388232CF4CE
:101FB00081E090E09E838D833FC06F817885898525
:101FC0009A8520E03FEF4FE757E40E941903181667
:101FD0004CF56B857C858D859E8520E030E040E268
:101FE00051E40E941F02DC01CB01BC01CD010E9423
:101FF0004900DC01CB019E838D830FC088EC90E00B
:102000009C838B838B819C810197F1F79C838B83CD
:102010008D819E8101979E838D838D819E81009706
:1020200069F714C06F81788589859A850E94490077
:10203000DC01CB019E838D838D819E819A83898370
:1020400089819A810197F1F79A8389838F858F5FC0
:102050008F878F85282F30E088899989FC01E20FCE
:10206000F31F8081882309F074CF61960FB6F8942E
:10207000DEBF0FBECDBFCF91DF910895DF93CF9329
:1020800000D000D0CDB7DEB789836A838A818823E8
:10209000E1F08A818131C8F48981282F30E03C83C6
:1020A0002B838B819C818130910531F02B813C8188
:1020B0002230310531F009C08A8181580E94700DAB
:1020C00004C08A8181540E94700D0F900F900F9070
:1020D0000F90CF91DF910895DF93CF93CDB7DEB707
:1020E00062970FB6F894DEBF0FBECDBF898B6A8BA7
:1020F00080E40E94700D188A0CC08889882F90E0B7
:10210000FC01EF59FE4F80810E94850E88898F5F08
:10211000888B8889803488F380E80E94700D8989D3
:102120006A890E943E101F8678C08F850E94850EA6
:1021300080E090E0A0EAB0E48B879C87AD87BE8703
:102140006B857C858D859E8520E030E04AEF54E4E8
:102150000E941F02DC01CB018F839887A987BA8771
:102160006F81788589859A8520E030E040E85FE3DB
:102170000E94790388232CF481E090E09E838D8374
:102180003FC06F81788589859A8520E03FEF4FE7D2
:1021900057E40E94190318164CF56B857C858D85D4
:1021A0009E8520E030E040E251E40E941F02DC0105
:1021B000CB01BC01CD010E944900DC01CB019E8313
:1021C0008D830FC088EC90E09C838B838B819C81F6
:1021D0000197F1F79C838B838D819E8101979E836C
:1021E0008D838D819E81009769F714C06F817885FA
:1021F00089859A850E944900DC01CB019E838D83ED
:102200008D819E819A83898389819A810197F1F7D3
:102210009A8389838F858F5F8F878F85883008F4B5
:1022200084CF62960FB6F894DEBF0FBECDBFCF91BC
:10223000DF910895DF93CF93CDB7DEB727970FB621
:10224000F894DEBF0FBECDBF9F838E831D821C829C
:102250008E819F819A8389830DC089819A812AE02A
:1022600030E0B9010E947C32CB019A8389838C8152
:102270008F5F8C8389819A81009779F78E819F8106
:102280009A8389831D822DC09C818D81292F281BD3
:10229000822F982F91508AE0692F0E947E119C0115
:1022A00089819A81B9010E947C32CB018B838B8119
:1022B000805D0E94850E9C818D81292F281B822F95
:1022C000982F91508AE0692F0E947E119C0189818C
:1022D0009A81B9010E947C329A8389838D818F5FB4
:1022E0008D839D818C81981778F227960FB6F8948C
:1022F000DEBF0FBECDBFCF91DF910895DF93CF93A7
:1023000000D000D00F92CDB7DEB78C836D8381E013
:1023100090E09B838A831982198212C08C81282FB6
:1023200030E08A819B81AC01429FC001439F900DA8
:10233000529F900D11249B838A8389818F5F8983AB
:1023400099818D81981750F38A819B810F900F900E
:102350000F900F900F90CF91DF910895AF92BF92A1
:10236000CF92DF92EF92FF920F93DF93CF93CDB78F
:10237000DEB70E9485140E9450199093A3018093A8
:10238000A20181E060E043E00E946E229093050785
:102390008093040780E690E00E949A0F85E294E122
:1023A00060E070E046E950E020E030E001E0EE243B
:1023B000FF24CC24DD24AA24BB240E9494298CEC85
:1023C00093E160E070E046E950E020E030E002E0B8
:1023D000EE24FF24CC24DD24AA24BB240E949429CB
:1023E0008DED92E160E070E046E950E020E030E001
:1023F00003E0EE24FF24CC24DD24AA24BB240E9485
:10240000942989E692E160E070E046E950E020E03E
:1024100030E004E0EE24FF24CC24DD24AA24BB24F5
:102420000E94942981E392E160E070E044E650E08C
:1024300020E030E005E0EE24FF24CC24DD24AA24B3
:10244000BB240E9494290E940F2B80E090E0CF9142
:10245000DF910F91FF90EF90DF90CF90BF90AF9002
:1024600008950F931F93DF93CF9300D0CDB7DEB7BE
:102470009A8389838FE690E00E940A0A8091A201E4
:102480009091A30161E070E040E020E00FEF1FEFCA
:102490000E94261A909303078093020780910207F7
:1024A0009091030781709070882341F383E062E08C
:1024B00041E00E946A0684EF91E00E94DA2A83E0FC
:1024C00062E040E00E946A0684EF91E00E94DA2A0E
:1024D000D5CFDF93CF9300D0CDB7DEB79A83898372
:1024E00085E890E00E940A0A8091A2019091A301E0
:1024F00062E070E00E94411B809104079091050703
:1025000060E070E04FEF5FEF20E00E9447248823F7
:1025100099F380910B078823F1F490910C07809137
:102520000D079817C0F080910E078130A1F482E06A
:1025300080930B078091A2019091A30161E070E06C
:102540000E94411B8091A2019091A30168E070E07C
:102550000E94411BD1CF80910B07823029F59091C9
:102560000C0780910D07981720F080910E078823A3
:10257000D9F410920B078091A2019091A30161E020
:1025800070E00E94E91A8091A2019091A30162E19A
:1025900070E00E94411B8091A2019091A30160E62E
:1025A00070E00E94411BA8CF8091A2019091A301ED
:1025B00061E070E00E94E91A9FCFDF93CF93CDB71F
:1025C000DEB728970FB6F894DEBF0FBECDBF988751
:1025D0008F838DE990E00E940A0ACE01039660E0A5
:1025E00070E043E050E00E942B331982CE01029646
:1025F0000E94D509882309F0CAC080910B0788235F
:1026000089F58A81833461F481E080930B0780919E
:10261000A2019091A30164E070E00E94411BB7C049
:102620008A81843509F0B3C090910E0781E0892733
:1026300080930E0788EC90E00E94DA2A8091A20134
:102640009091A30160E470E00E94411B8091040717
:102650009091050760E070E040E050E020E00E94CB
:10266000392395C080910B07813009F074C08A81AD
:10267000803398F18A818A3380F58981282F30E070
:102680004A81CE010396FC01E20FF31F408389814A
:102690008F5F89839E012D5F3F4F86E097E0B901F0
:1026A00043E050E00E942B33898180930A07809198
:1026B000A2019091A30160E870E00E94411B898112
:1026C000833008F464C019828091A2019091A30123
:1026D00060E270E00E94411B5AC08A818F3429F564
:1026E000CE0103960E94043380930D0710920B07CE
:1026F000809104079091050760E070E040E050E0B1
:1027000020E00E9439238091A2019091A30162E10F
:1027100070E00E94411B8091A2019091A30160E6AC
:1027200070E00E94411B198232C08A81833479F59E
:1027300010920B078091A2019091A30162E170E0D9
:102740000E94411B8091A2019091A30160E670E07C
:102750000E94411B1CC080910B078230C1F48A810A
:102760008335A9F410920E07809104079091050714
:1027700060E070E040E050E020E00E94392380916A
:10278000A2019091A30162E070E00E94411B82E3EC
:1027900090E00E94DA2A2ACFDF93CF9300D000D0B6
:1027A0000F92CDB7DEB79D838C8386EB90E00E94BD
:1027B0000A0A1B821A828A819B819C01220F331F85
:1027C000C901880F991F880F991F820F931F898352
:1027D00080E00E94DB059B838A832A813B8182E320
:1027E00090E0AC01249FC001259F900D349F900D77
:1027F0001124892F9927869586959B838A838A81C0
:10280000898390910C0789819817D1F089818093F1
:102810000C07809104079091050760E070E040E0AC
:1028200050E020E00E94392380910B07882341F477
:102830008091A2019091A30160E270E00E94411B8F
:1028400088EC90E00E94DA2AC3CF0F931F93DF93A6
:10285000CF9300D0CDB7DEB79A8389838CEC90E01C
:102860000E940A0A8091A2019091A3016EEF70E08C
:1028700041E020E00FEF1FEF0E94261A909303071C
:1028800080930207809102079091030782709070F5
:10289000009719F00E94A714E5CF8091020790914C
:1028A000030784709070009719F00E94E414DACF47
:1028B000809102079091030788709070009719F03B
:1028C0000E94FA14CFCF8091020790910307807184
:1028D0009070009719F00E941015C4CF80910207E4
:1028E0009091030780729070009719F00E9437153D
:1028F000B9CF809102079091030780749070009780
:1029000009F4B0CF0E945E15ADCFDF93CF93CDB762
:10291000DEB710920B0781E080930E0710920C0730
:102920008EE180930D070E94350A0E94A30583E083
:1029300062E041E00E94F60780E895E20E9480098B
:1029400084EE90E00E940A0ACF91DF910895DF9310
:10295000CF93CDB7DEB781E00E94700D85EF90E098
:102960000E949A0F80910C07882F90E00E941A1104
:1029700088EF90E00E949A0F8BEF90E00E949A0FF0
:1029800080910D07882F90E00E941A1188EF90E047
:102990000E949A0F8EEF90E00E949A0F80910E078E
:1029A000882321F085E40E94850E03C084E40E9400
:1029B000850E82E064E00E943E1082E091E00E9479
:1029C0009A0FCF91DF910895DF93CF93CDB7DEB704
:1029D00081E00E94700D8FE091E00E949A0F82E0EA
:1029E00062E00E943E1086E191E00E949A0FCF9132
:1029F000DF910895DF93CF93CDB7DEB781E00E94DA
:102A0000700D85E291E00E949A0F82E064E00E94DE
:102A10003E1080E391E00E949A0FCF91DF910895DC
:102A2000DF93CF93CDB7DEB781E061E00E943E1027
:102A300085EF90E00E949A0F80910C07882F90E01C
:102A40000E941A1187E391E00E949A0F8BEF90E0A9
:102A50000E949A0F80910D07882F90E00E941A1112
:102A600087E391E00E949A0FCF91DF910895DF9361
:102A7000CF93CDB7DEB781E061E00E943E1085EFD5
:102A800090E00E949A0F80910C07882F90E00E949E
:102A90001A1187E391E00E949A0F8BEF90E00E9459
:102AA0009A0F80910D07882F90E00E941A1187E3FA
:102AB00091E00E949A0FCF91DF910895DF93CF9319
:102AC000CDB7DEB781E060E10E943E1080910E0735
:102AD000882321F085E40E94850E03C084E40E94CF
:102AE000850ECF91DF910895DF93CF93CDB7DEB7F9
:102AF00080910A07982F985F81E0692F0E943E100D
:102B000080910A07882F90E0FC01EA5FF84F8081EE
:102B1000805D0E94850ECF91DF910895AF92BF92A4
:102B2000CF92DF92EF92FF920F93DF93CF930F92AA
:102B3000CDB7DEB789838AE062E040E00E946E2272
:102B40009093A7018093A60182E196E12AE331E008
:102B5000E6EAF1E0B90145E550E09F010981EE2484
:102B6000FF24CC24DD24AA24BB240E94942985EDD3
:102B700095E122E431E0E6EAF1E0B90145E550E013
:102B80009F010981EE24FF24CC24DD24AA24BB2448
:102B90000E9494290F90CF91DF910F91FF90EF90B9
:102BA000DF90CF90BF90AF900895DF93CF9300D088
:102BB00000D000D0CDB7DEB79E838D831C821B82F0
:102BC0001A82198227C0ED81FE81808191819E0148
:102BD0002D5F3F4FB90140E050E020E00E943923D3
:102BE000813019F081E08A8312C08A81882351F4F0
:102BF0000FB6F8940F928091A5018F5F8093A50185
:102C00000F900FBE8B819C8101969C838B83898161
:102C10008F5F898389818330B4F288EC90E00E94D1
:102C2000DA2ACFCFDF93CF93CDB7DEB727970FB692
:102C3000F894DEBF0FBECDBF9F838E831B821A82A6
:102C400019822FC0EE81FF81808191819E012C5FCE
:102C50003F4FB90140E050E020E00E94472481301E
:102C600001F52C813D818A819B812817390739F034
:102C700081E089838C819D819B838A830DC08981BA
:102C8000882351F40FB6F8940F928091A4018F5FBE
:102C90008093A4010F900FBE8A819B8101969B8334
:102CA0008A83EE81FF81808191810E94B8258823EB
:102CB00049F684EB90E00E94DA2AF3CFDF93CF93BA
:102CC0000F92CDB7DEB78091A401882321F08091C7
:102CD000A501882311F4198202C081E08983109232
:102CE000A4011092A50189810F90CF91DF910895E1
:102CF000DF93CF93CDB7DEB727970FB6F894DEBF3B
:102D00000FBECDBF9D838C836E834F838AE190E09D
:102D10000E94901C9A83898389819A81009709F483
:102D20006FC08091A8019091A901009741F4898119
:102D30009A819093A9018093A8010E94DF188E8147
:102D4000823010F081E08E83E981FA81118E108E3D
:102D5000E981FA818E81868BE981FA818F81878B67
:102D6000E981FA818C819D819183808389819A8117
:102D700002960E94081E89819A810C960E94081E64
:102D8000E981FA8189819A8191878087E981FA8135
:102D900089819A81938B828B8E81282F30E082E00B
:102DA00090E0821B930BE981FA8195878487E98102
:102DB000FA8196898091AA01891728F4E981FA811C
:102DC00086898093AA01E981FA818689282F30E0DB
:102DD000C901880F991F880F991F880F991F820FAB
:102DE000931FAC014F545E4F89819A819C012E5FE5
:102DF0003F4FCA01B9010E94181E81E08B8302C0B7
:102E00008FEF8B838B8127960FB6F894DEBF0FBEB2
:102E1000CDBFCF91DF910895DF93CF9300D000D045
:102E200000D0CDB7DEB79C838B837E836D832091EA
:102E3000AB013091AC018B819C81820F931F9A83EF
:102E400089838091A8019091A90102960E94C81ED1
:102E5000E091A801F091A90189819A8193838283ED
:102E60002091AB013091AC0189819A81821793073F
:102E700070F48091D7019091D8012091A8013091F0
:102E8000A9012E5F3F4FB9010E945C1E0DC08091C9
:102E9000D5019091D6012091A8013091A9012E5F12
:102EA0003F4FB9010E945C1E8D819E81009761F0A9
:102EB0008091A8019091A9019C01245F3F4F8D81D1
:102EC0009E81B9010E945C1E26960FB6F894DEBF63
:102ED0000FBECDBFCF91DF910895DF93CF9300D088
:102EE000CDB7DEB73AC0F894E091DE01F091DF0192
:102EF000868197819A83898389819A810C960E9421
:102F0000C81E789489819A8102960E94C81EE98120
:102F1000FA8196898091AA01891728F4E981FA81BA
:102F200086898093AA01E981FA818689282F30E079
:102F3000C901880F991F880F991F880F991F820F49
:102F4000931FAC014F545E4F89819A819C012E5F83
:102F50003F4FCA01B9010E94181E8091D9018823F0
:102F600009F0C1CF0F900F90CF91DF910895DF93BB
:102F7000CF9300D000D0CDB7DEB70E94E82B2091D0
:102F8000AD013091AE01821B930B9093B001809301
:102F9000AF0185C08091AB019091AC0101969093F7
:102FA000AC018093AB018091AF019091B00101978A
:102FB0009093B0018093AF018091AB019091AC01EF
:102FC000009709F064C08091D5019091D6019A8351
:102FD00089838091D7019091D8019093D6018093F5
:102FE000D50189819A819093D8018093D7014FC0F0
:102FF000E091D501F091D6010580F681E02D868122
:1030000097819C838B83EB81FC812281338180912A
:10301000AB019091AC018217930708F440C0F8947B
:103020008B819C8102960E94C81EEB81FC81848961
:103030009589009729F08B819C810C960E94C81E6F
:103040007894EB81FC8196898091AA01891728F4F4
:10305000EB81FC8186898093AA01EB81FC818689C2
:10306000282F30E0C901880F991F880F991F880FFA
:10307000991F820F931FAC014F545E4F8B819C812F
:103080009C012E5F3F4FCA01B9010E94181EE091BA
:10309000D501F091D6018081882309F0A9CF8091D4
:1030A000AF019091B001009709F074CF8091AB010E
:1030B0009091AC019093AE018093AD010F900F9071
:1030C0000F900F90CF91DF910895DF93CF9300D0B1
:1030D000CDB7DEB70E946D170E94B7170AC0809166
:1030E000AA01882309F466C08091AA0181508093C7
:1030F000AA018091AA01282F30E0C901880F991FE9
:10310000880F991F880F991F820F931FFC01EF549E
:10311000FE4F8081882319F38091AA01282F30E087
:10312000C901880F991F880F991F880F991F820F57
:10313000931F8F549E4F9A838983E981FA8101807E
:10314000F281E02D82819381E981FA8192838183EA
:10315000E981FA812181328189819A810396281738
:10316000390759F4E981FA810180F281E02D8281E9
:103170009381E981FA8192838183E981FA810180D7
:10318000F281E02D868197819093A9018093A80117
:10319000E091A801F091A901408151818091A8019D
:1031A0009091A901E091A801F091A9012789622FCE
:1031B000FA0109950F900F90CF91DF910895DF9359
:1031C000CF930F92CDB7DEB7198213C08981282F14
:1031D00030E0C901880F991F880F991F880F991F28
:1031E000820F931F8F549E4F0E94DE1D89818F5F37
:1031F00089838981823050F383EC91E00E94DE1D47
:103200008CEC91E00E94DE1D89ED91E00E94DE1DB4
:1032100083EC91E09093D6018093D5018CEC91E002
:103220009093D8018093D7010F90CF91DF910895AB
:10323000DF93CF9300D000D00F92CDB7DEB79D8340
:103240008C83EC81FD810580F681E02D868197815C
:103250009B838A838A819B810C960E94C81E8A81E7
:103260009B819C01245F3F4F89ED91E0B9010E9451
:10327000181EEA81FB819689E091A801F091A901CD
:103280008689981718F081E0898301C019828981A5
:103290000F900F900F900F900F90CF91DF910895A6
:1032A000DF93CF9300D0CDB7DEB78BE090E00E94E4
:1032B000901C9A83898389819A81009749F0E981DA
:1032C000FA811182108289819A8102960E94DE1D04
:1032D00089819A810F900F90CF91DF910895DF93AC
:1032E000CF93CDB7DEB760970FB6F894DEBF0FBEB1
:1032F000CDBF9A8789877C876B875E874D87388BA0
:103300002F8789859A859C838B8319820E94522BF3
:10331000EB81FC818081918198878F8389859A8553
:103320002B853C85B9010E94411B2F8138858B85F7
:103330009C85282B392B8D859E85282339238D85C7
:103340009E8528173907C9F42F8138858B859C8580
:10335000822B932B9E838D83EB81FC812081318195
:103360008D859E858095909582239323EB81FC81AA
:1033700091838083188A1F861CC08F859889009747
:1033800091F08B819C81BC016E5F7F4F8D859E8506
:103390009C0135604F855889CB01B9010E94A22D4F
:1033A0001E821D8206C0EB81FC81808191819E83FB
:1033B0008D830E945E2B8A838F859889009709F4FC
:1033C0003AC08A81882311F40E94D3200E941E32C1
:1033D0009E838D838D819E8180709270009731F5E0
:1033E0000FB6F8940F92EB81FC81808191819E83CE
:1033F0008D832D813E818D859E85282339238D8562
:103400009E852817390771F4EB81FC812081318179
:103410008D859E858095909582239323EB81FC81F9
:10342000918380830F900FBE81E089838D819E817F
:1034300090709E838D838D819E8160960FB6F894E7
:10344000DEBF0FBECDBFCF91DF9108950F931F93C5
:10345000DF93CF93CDB7DEB763970FB6F894DEBF97
:103460000FBECDBF9D878C877F876E87488B298B4A
:103470001B8B0A8B8C859D859B878A871F821E826A
:103480001B820E94522BEA85FB85808191819A8361
:10349000898389819A812E853F85B90149890E9456
:1034A0005E1C8D838D818823C1F089819A819987E3
:1034B00088871B8A1A8A88898823D9F1EA85FB853F
:1034C000208131818E859F858095909582239323DD
:1034D000EA85FB85918380832CC08A899B8900972C
:1034E00029F489819A819987888723C088898823CC
:1034F00029F08E819F8191609F838E8389898823A3
:1035000029F08E819F8194609F838E838A859B851D
:10351000BC016E5F7F4F2E853F858E819F81282B5A
:10352000392B4A895B89CB01B9010E94A22D1986EA
:1035300018860E945E2B8C838A899B89009709F4E8
:103540003BC08C81882311F40E94D3200E941E323C
:10355000998788878885998580709270009739F55A
:103560000FB6F8940F92EA85FB8580819181998747
:103570008887888599852E853F85B90149890E946C
:103580005E1C882389F08889882371F0EA85FB8591
:10359000208131818E859F8580959095822393230C
:1035A000EA85FB85918380830F900FBE1B828885FF
:1035B00099859070998788878885998563960FB6D5
:1035C000F894DEBF0FBECDBFCF91DF911F910F9159
:1035D0000895DF93CF93CDB7DEB728970FB6F89451
:1035E000DEBF0FBECDBF9E838D8378876F838D81B5
:1035F0009E819C838B830FB6F8940F92EB81FC81A4
:10360000808191819A838983EB81FC812081318142
:103610008F8198858095909582239323EB81FC81FF
:10362000918380830F900FBE89819A8128960FB66F
:10363000F894DEBF0FBECDBFCF91DF910895DF9329
:10364000CF93CDB7DEB727970FB6F894DEBF0FBE86
:10365000CDBF9F838E838E819F819C838B831D82B0
:10366000EB81FC81808191819A83898389819A8110
:1036700027960FB6F894DEBF0FBECDBFCF91DF9176
:103680000895DF93CF93CDB7DEB765970FB6F89463
:10369000DEBF0FBECDBF9B8B8A8B7D8B6C8B19865B
:1036A00018868A899B899B838A8319828A819B8158
:1036B00002969B878A878A859B8503969D878C8740
:1036C0000E94522BEA85FB8585819681998B888B98
:1036D000EA81FB81208131818C899D89822B932B0A
:1036E000EA81FB819183808359C0E889F9898281CD
:1036F00093819F878E87E889F989808191819F8353
:103700008E8319828E819F8180709D838C838E81B0
:103710009F8190709F838E838C819D818070947037
:10372000009769F4EA81FB81208131818E819F813C
:1037300082239323009791F081E089830FC0EA816F
:10374000FB81208131818E819F81282339238E81C5
:103750009F812817390711F481E0898389818823A3
:10376000C9F08C819D8180709170009741F08885AF
:1037700099852E813F81822B932B99878887EA81B7
:10378000FB81808191819C01326088899989B9018E
:103790000E94502E8E859F85998B888B2889398928
:1037A0008C859D852817390709F09FCFEA81FB8119
:1037B00020813181888599858095909582239323F6
:1037C000EA81FB81918380830E945E2BEA81FB81E9
:1037D0008081918165960FB6F894DEBF0FBECDBF94
:1037E000CF91DF910895DF93CF9300D000D000D028
:1037F000CDB7DEB79E838D838D819E819C838B8325
:103800008B819C8102969A8389830E94522B08C0E7
:10381000E981FA818581968160E072E00E94502EF4
:10382000E981FA818081882399F78B819C810E94AC
:10383000E61C0E945E2B26960FB6F894DEBF0FBEE4
:10384000CDBFCF91DF910895DF93CF9300D000D00B
:1038500000D0CDB7DEB79A8389834B835C836D83B9
:103860007E832B813C8189819A81B9010E94411B11
:1038700026960FB6F894DEBF0FBECDBFCF91DF9175
:103880000895DF93CF9300D000D000D0CDB7DEB73E
:103890009A8389834B835C836D837E832B813C81F8
:1038A00089819A81B9010E94E91A26960FB6F89487
:1038B000DEBF0FBECDBFCF91DF910895DF93CF93D1
:1038C00000D000D000D0CDB7DEB79B838A837D8344
:1038D0006C834E8319828E81882359F48A819B815F
:1038E0002C813D8182239323009781F081E089839D
:1038F0000DC02A813B818C819D81282339238C81B5
:103900009D812817390711F481E0898389812696E2
:103910000FB6F894DEBF0FBECDBFCF91DF910895F3
:10392000DF93CF9300D000D0CDB7DEB79C838B83DD
:103930001A8219820E94522B8091E4019091E50134
:10394000009731F487EE91E09093E5018093E401D4
:103950008091E2019091E3012B813C81820F931FC2
:1039600024E08F3A920738F52091E2013091E3018B
:103970008B819C81280F391F8091E2019091E30196
:1039800082179307C0F42091E4013091E501809102
:10399000E2019091E301820F931F9A838983209122
:1039A000E2013091E3018B819C81820F931F909300
:1039B000E3018093E2010E945E2B89819A810F903E
:1039C0000F900F900F90CF91DF910895DF93CF93D9
:1039D00000D0CDB7DEB79A8389830F900F90CF9137
:1039E000DF910895DF93CF93CDB7DEB71092E30157
:1039F0001092E201CF91DF910895DF93CF93CDB77D
:103A0000DEB72091E2013091E3018FEA94E0821B5E
:103A1000930BCF91DF910895AF92BF92CF92DF9237
:103A2000EF92FF920F93DF93CF9300D00F92CDB719
:103A3000DEB78B831A8219821BC089819A81FC01AF
:103A4000EA56F94F8AE49DE12AE431E0B90145E5FF
:103A500050E09F010B81EE24FF24CC24DD24AA2416
:103A6000BB240E94942989819A8101969A83898333
:103A700089819A811816190604F70F900F900F90FC
:103A8000CF91DF910F91FF90EF90DF90CF90BF909B
:103A9000AF900895DF93CF93CDB7DEB72A970FB6D7
:103AA000F894DEBF0FBECDBF9A8789871C821B8228
:103AB00089859A859A8389838BE790E0A0E0B0E0BE
:103AC0008D839E83AF83B8878D819E81AF81B885BA
:103AD000895B9B46AC4FBF4F8D839E83AF83B88776
:103AE0008D819E81AF81B8852DEF3FEF4FEF5FEF66
:103AF000BC01CD010E945D32DC01CB018D839E8330
:103B0000AF83B8878D819E81AF81B88527E030E093
:103B100040E050E0BC01CD010E94B232DA01C9019F
:103B20008D839E83AF83B8878D819E81AF81B88559
:103B30008B3127E792072EEFA2072FEFB20721F074
:103B400081E090E09C838B838B819C81009709F0BE
:103B5000B3CF0FB6F8940F92E981FA8181E08083A8
:103B60000F900FBEA9CFDF93CF9300D00F92CDB7A8
:103B7000DEB781E08B831A82198214C089819A8111
:103B8000FC01EA56F94F8081882309F41B82898160
:103B90009A81FC01EA56F94F108289819A81019637
:103BA0009A83898389819A81181619063CF78B813B
:103BB0000F900F900F90CF91DF910895DF93CF93E7
:103BC00000D0CDB7DEB79A83898389819A81039625
:103BD000E981FA8192838183E981FA818FEF9FEFF6
:103BE0009483838389819A810396E981FA819683FC
:103BF000858389819A810396E981FA8190878783F9
:103C0000E981FA8110820F900F90CF91DF91089592
:103C1000DF93CF9300D0CDB7DEB79A838983E98154
:103C2000FA81118610860F900F90CF91DF91089541
:103C3000DF93CF9300D000D000D0CDB7DEB79C8308
:103C40008B837E836D83EB81FC81818192819A835A
:103C50008983ED81FE8189819A8193838283E981C1
:103C6000FA8184819581ED81FE8195838483E98148
:103C7000FA810480F581E02D8D819E81938382837A
:103C8000E981FA818D819E8195838483ED81FE8116
:103C90008B819C8191878087EB81FC8180818F5F04
:103CA000EB81FC81808326960FB6F894DEBF0FBEB1
:103CB000CDBFCF91DF910895DF93CF93CDB7DEB71E
:103CC00028970FB6F894DEBF0FBECDBF9E838D83BD
:103CD00078876F83EF81F885808191819A838983CA
:103CE00089819A812FEF8F3F920739F4ED81FE8110
:103CF000878190859C838B8318C08D819E810396DC
:103D00009C838B8306C0EB81FC81828193819C83A1
:103D10008B83EB81FC810280F381E02D2081318156
:103D200089819A818217930770F7EB81FC818281E8
:103D30009381EF81F88593838283EF81F8850280F8
:103D4000F381E02D8F81988595838483EF81F885B9
:103D50008B819C8195838483EB81FC818F81988505
:103D600093838283EF81F8858D819E8191878087FF
:103D7000ED81FE8180818F5FED81FE8180832896B9
:103D80000FB6F894DEBF0FBECDBFCF91DF9108957F
:103D9000DF93CF9300D000D0CDB7DEB79C838B8369
:103DA000EB81FC81808591859A838983EB81FC81FD
:103DB000A281B381EB81FC818481958115969C93CE
:103DC0008E931497EB81FC81A481B581EB81FC81FA
:103DD0008281938113969C938E931297E981FA8145
:103DE000218132818B819C812817390741F4EB8135
:103DF000FC8184819581E981FA8192838183EB81C1
:103E0000FC8111861086E981FA8180818150E981E7
:103E1000FA818083E981FA8180810F900F900F9061
:103E20000F90CF91DF910895DF93CF93CDB7DEB799
:103E300028970FB6F894DEBF0FBECDBF9C838B834F
:103E40007E836D8358874F83EB81FC8181E1808382
:103E50008B819C8101979C838B83EB81FC8182E227
:103E600080838B819C8101979C838B83EB81FC8178
:103E700083E380838B819C8101979C838B838D81DD
:103E80009E819A8389838981EB81FC8180838B81E8
:103E90009C8101979C838B8389819A81892F9927A3
:103EA0009A8389838981EB81FC8180838B819C81CA
:103EB00001979C838B83EB81FC8110828B819C8199
:103EC00001979C838B83EB81FC8180E880838B81CD
:103ED0009C8101979C838B83EB81FC8110828B8179
:103EE0009C8101979C838B83EB81FC8182E08083A2
:103EF0008B819C8101979C838B83EB81FC8183E088
:103F000080838B819C8101979C838B83EB81FC81D7
:103F100084E080838B819C8101979C838B83EB81E0
:103F2000FC8185E080838B819C8101979C838B83BE
:103F3000EB81FC8186E080838B819C8101979C834F
:103F40008B83EB81FC8187E080838B819C8101974F
:103F50009C838B83EB81FC8188E080838B819C81B7
:103F600001979C838B83EB81FC8189E080838B812B
:103F70009C8101979C838B83EB81FC8180E1808312
:103F80008B819C8101979C838B83EB81FC8181E1F8
:103F900080838B819C8101979C838B83EB81FC8147
:103FA00082E180838B819C8101979C838B83EB8151
:103FB000FC8183E180838B819C8101979C838B832F
:103FC000EB81FC8184E180838B819C8101979C83C0
:103FD0008B83EB81FC8185E180838B819C810197C0
:103FE0009C838B83EB81FC8186E180838B819C8128
:103FF00001979C838B83EB81FC8187E180838B819C
:104000009C8101979C838B83EB81FC8188E1808379
:104010008B819C8101979C838B83EB81FC8189E15F
:1040200080838B819C8101979C838B83EB81FC81B6
:1040300080E280838B819C8101979C838B83EB81C1
:10404000FC8181E280838B819C8101979C838B839F
:10405000EB81FC8182E280838B819C8101979C8330
:104060008B83EB81FC8183E280838B819C81019730
:104070009C838B838F8198859A8389838981EB8147
:10408000FC8180838B819C8101979C838B838981B8
:104090009A81892F99279A8389838981EB81FC8171
:1040A00080838B819C8101979C838B83EB81FC8136
:1040B00086E280838B819C8101979C838B83EB813B
:1040C000FC8187E280838B819C8101979C838B8319
:1040D000EB81FC8188E280838B819C8101979C83AA
:1040E0008B83EB81FC8189E280838B819C810197AA
:1040F0009C838B83EB81FC8180E380838B819C811B
:1041000001979C838B83EB81FC8181E380838B818E
:104110009C8101979C838B838B819C8128960FB611
:10412000F894DEBF0FBECDBFCF91DF910895DF932E
:10413000CF93CDB7DEB70E948921A0919706B091A9
:104140009806CD91CDBFDD91DEBFFF91EF91DF915C
:10415000CF91BF91AF919F918F917F916F915F911F
:104160004F913F912F911F910F91FF90EF90DF9012
:10417000CF90BF90AF909F908F907F906F905F9007
:104180004F903F902F901F900F900FBE0F9008956B
:1041900081E0CF91DF910895DF93CF93CDB7DEB764
:1041A000CF91DF9108950F920FB6F8940F921F925E
:1041B00011242F923F924F925F926F927F928F9233
:1041C0009F92AF92BF92CF92DF92EF92FF920F93A6
:1041D0001F932F933F934F935F936F937F938F938F
:1041E0009F93AF93BF93CF93DF93EF93FF93A091F0
:1041F0009706B09198060DB60D920EB60D920E94DC
:10420000042DA0919706B0919806CD91CDBFDD9178
:10421000DEBFFF91EF91DF91CF91BF91AF919F9161
:104220008F917F916F915F914F913F912F911F914E
:104230000F91FF90EF90DF90CF90BF90AF909F9045
:104240008F907F906F905F904F903F902F901F9036
:104250000F900FBE0F9008950F920FB6F8940F9223
:104260001F9211242F923F924F925F926F927F92F2
:104270008F929F92AF92BF92CF92DF92EF92FF9276
:104280000F931F932F933F934F935F936F937F935E
:104290008F939F93AF93BF93CF93DF93EF93FF934E
:1042A000A0919706B09198060DB60D920EB60D929C
:1042B0000E941D2C882311F00E94042DA0919706C6
:1042C000B0919806CD91CDBFDD91DEBFFF91EF910A
:1042D000DF91CF91BF91AF919F918F917F916F911E
:1042E0005F914F913F912F911F910F91FF90EF9010
:1042F000DF90CF90BF90AF909F908F907F906F9006
:104300005F904F903F902F901F900F900FBE0F9097
:104310000895DF93CF9300D000D000D0CDB7DEB7A3
:1043200080E49FE1A0E0B0E08B839C83AD83BE83FB
:104330008B819C81AD81BE81689415F8B695A79557
:10434000979587951694D1F78B839C83AD83BE8315
:104350008B819C81AD81BE810197A109B1098B83BD
:104360009C83AD83BE838B8189838B819C81AD814E
:10437000BE81892F9A2FAB2FBB278B839C83AD8364
:10438000BE838B818A83EBE4F0E08A818083EAE458
:10439000F0E0898180838BE08983EEE4F0E089811D
:1043A0008083E9E5F0E08081898389818061898368
:1043B000E9E5F0E08981808326960FB6F894DEBFA8
:1043C0000FBECDBFCF91DF9108950E942C2118958B
:1043D000DF93CF9300D000D00F92CDB7DEB79C8390
:1043E0008B836D838B819C819A8389830FB6F8942C
:1043F0000F92E981FA8140815181E981FA81838DAF
:10440000282F30E0E981FA81848D882F90E0BC016B
:10441000269FC001279F900D369F900D1124840F79
:10442000951FE981FA8193838283E981FA81128E53
:10443000E981FA8180819181E981FA819583848380
:10444000E981FA8140815181E981FA81838D882F48
:1044500090E09C0121503040E981FA81848D882FC1
:1044600090E0BC01269FC001279F900D369F900DC4
:104470001124840F951FE981FA8197838683E9814E
:10448000FA818FEF858FE981FA818FEF868F8D8199
:10449000882379F4E981FA8180858823A1F08981D4
:1044A0009A8108960E94E52D813069F40E94D320FC
:1044B0000AC089819A8108960E94DE1D89819A81AD
:1044C00041960E94DE1D0F900FBE81E00F900F906D
:1044D0000F900F900F90CF91DF910895DF93CF93BE
:1044E000CDB7DEB729970FB6F894DEBF0FBECDBFAC
:1044F0008F83688749871A8219828F81882309F4FC
:104500003FC08FE190E00E94901C9E838D838D813F
:104510009E810097A9F18F81282F30E08885882F10
:1045200090E0AC01249FC001259F900D349F900D19
:10453000112401969C838B838B819C810E94901C0B
:10454000ED81FE8191838083ED81FE818081918167
:10455000009791F0ED81FE818F81838FED81FE8147
:104560008885848F8D819E8161E00E94E8218D8104
:104570009E819A83898304C08D819E810E94E61C5E
:1045800089819A8129960FB6F894DEBF0FBECDBF00
:10459000CF91DF910895DF93CF9300D00F92CDB7E5
:1045A000DEB78B838FE190E00E94901C9A83898311
:1045B00089819A810097A9F1E981FA811382128297
:1045C000E981FA8111821082E981FA8115821482CF
:1045D000E981FA8117821682E981FA81128EE981D6
:1045E000FA8181E0838FE981FA81148EE981FA8171
:1045F0008FEF858FE981FA818FEF868F89819A818C
:1046000008960E94DE1D89819A8141960E94DE1DD6
:1046100089819A8160E070E040E050E020E00E94F3
:10462000392389819A810F900F900F90CF91DF915C
:104630000895DF93CF9300D000D0CDB7DEB78B8342
:104640006C838B8160E042E00E946E229A838983B2
:1046500089819A81009721F0E981FA818C81828F8A
:1046600089819A810F900F900F900F90CF91DF91D9
:104670000895DF93CF93CDB7DEB72F970FB6F89499
:10468000DEBF0FBECDBF998788877B876A875D872E
:104690004C872E871C82888599859A8389830FB6DB
:1046A000F8940F92E981FA81928DE981FA81838DE4
:1046B000981718F08E85823011F589819A812A85A4
:1046C0003B85B9014E850E942B268B83E981FA81B7
:1046D0008189882351F089819A8141960E94E52D34
:1046E000813041F40E94D32005C08B81882311F0D2
:1046F0000E94D3200F900FBE81E08F875CC08C8515
:104700009D85009721F40F900FBE1F8654C08C81A9
:10471000882331F4CE0105960E94B52E81E08C836A
:104720000F900FBE0E94522B0FB6F8940F92E981A2
:10473000FA81858D8F3F19F4E981FA81158EE9811F
:10474000FA81868D8F3F19F4E981FA81168E0F90D8
:104750000FBECE0105969E01245F3F4FB9010E9416
:10476000CE2E882309F589819A810E94B427882357
:10477000A1F089819A8108962C853D85B9010E9416
:104780006D2D89819A810E942B270E945E2B8823A0
:1047900009F085CF0E94D32082CF89819A810E941F
:1047A0002B270E945E2B7BCF89819A810E942B2729
:1047B0000E945E2B1F868F852F960FB6F894DEBF62
:1047C0000FBECDBFCF91DF910895DF93CF93CDB7CB
:1047D000DEB72B970FB6F894DEBF0FBECDBF9E831A
:1047E0008D8378876F835A8749872B878D819E8138
:1047F0009A8389831B82E981FA81928DE981FA810A
:10480000838D981718F08B858230B1F589819A8154
:104810002F813885B9014B850E942B26882341F0D2
:1048200089859A85009721F0E985FA8581E0808362
:10483000E981FA81868D8F3FA9F4E981FA81818926
:104840008823B9F089819A8141960E94E52D8823B9
:1048500081F089859A85009761F0E985FA8581E084
:10486000808307C0E981FA81868D8F5FE981FA81B3
:10487000868F81E08C8301C01C828C812B960FB6C1
:10488000F894DEBF0FBECDBFCF91DF910895DF93C7
:10489000CF93CDB7DEB760970FB6F894DEBF0FBEEB
:1048A000CDBF9A8789877C876B875E874D872F87E7
:1048B0001D8289859A859A8389830FB6F8940F9211
:1048C000E981FA81828D882309F44BC0E981FA815C
:1048D000868197819C838B8389819A812B853C85F6
:1048E000B9010E94E4268F85882311F5E981FA81B8
:1048F000828D8150E981FA81828FE981FA818081FC
:104900009181009731F40E944532E981FA819383C5
:104910008283E981FA8180858823F1F089819A81F7
:1049200008960E94E52D8130B9F40E94D32014C06E
:10493000E981FA818B819C8197838683E981FA8161
:104940008189882349F089819A8141960E94E52DC9
:10495000882311F00E94D3200F900FBE81E0888B36
:104960006DC08D859E85009721F40F900FBE188A2B
:1049700065C08D81882331F4CE0106960E94B52E44
:1049800081E08D830F900FBE0E94522B0FB6F894DA
:104990000F92E981FA81858D8F3F19F4E981FA81BF
:1049A000158EE981FA81868D8F3F19F4E981FA81AC
:1049B000168E0F900FBECE0106969E01235F3F4FCD
:1049C000B9010E94CE2E882391F589819A810E9497
:1049D0007F27882329F1E981FA81808191810097DD
:1049E00059F40FB6F8940F92E981FA81828193818C
:1049F0000E9421310F900FBE89819A8141962D85A9
:104A00003E85B9010E946D2D89819A810E942B27D4
:104A10000E945E2B882309F050CF0E94D3204DCFF7
:104A200089819A810E942B270E945E2B46CF898123
:104A30009A810E942B270E945E2B188A8889609693
:104A40000FB6F894DEBF0FBECDBFCF91DF910895B2
:104A5000DF93CF93CDB7DEB72A970FB6F894DEBFBA
:104A60000FBECDBF9E838D8378876F835A8749871A
:104A70008D819E819A8389831B82E981FA81828D4F
:104A8000882391F189819A812F813885B9010E940B
:104A9000E426E981FA81828D8150E981FA81828F51
:104AA000E981FA81858D8F3FA9F4E981FA818085BA
:104AB0008823B9F089819A8108960E94E52D882380
:104AC00081F089859A85009761F0E985FA8581E012
:104AD000808307C0E981FA81858D8F5FE981FA8142
:104AE000858F81E08C8301C01C828C812A960FB651
:104AF000F894DEBF0FBECDBFCF91DF910895DF9355
:104B0000CF93CDB7DEB72A970FB6F894DEBF0FBEAE
:104B1000CDBF98878F837A8769878F8198859A839D
:104B200089831D82E981FA81828D8823B1F0E98130
:104B3000FA81868197819C838B8389819A812985DB
:104B40003A85B9010E94E426E981FA818B819C8132
:104B50009783868381E08E8301C01E828E812A9690
:104B60000FB6F894DEBF0FBECDBFCF91DF91089591
:104B7000DF93CF9300D00F92CDB7DEB79B838A83AC
:104B80000FB6F8940F92EA81FB81828D89830F9092
:104B90000FBE89810F900F900F90CF91DF910895F4
:104BA000DF93CF9300D000D00F92CDB7DEB79D83B7
:104BB0008C838C819D819A8389830FB6F8940F92A0
:104BC000E981FA81938DE981FA81828D292F281B51
:104BD000822F8B830F900FBE8B810F900F900F90C1
:104BE0000F900F90CF91DF910895DF93CF9300D076
:104BF0000F92CDB7DEB79B838A83EA81FB81828DDA
:104C0000898389810F900F900F90CF91DF91089544
:104C1000DF93CF9300D000D0CDB7DEB79C838B83DA
:104C20008B819C819A838983E981FA81808191813A
:104C3000009731F0E981FA81808191810E94E61C20
:104C400089819A810E94E61C0F900F900F900F901F
:104C5000CF91DF910895DF93CF9300D000D000D0A3
:104C6000CDB7DEB79B838A837D836C834E831982A5
:104C7000EA81FB81848D882399F4EA81FB8180811C
:104C80009181009709F08FC0EA81FB818281938135
:104C90000E94AC318983EA81FB811382128283C036
:104CA0008E81882399F5EA81FB8164817581EA818F
:104CB000FB81848D482F50E02C813D81CB01B901CF
:104CC0000E942233EA81FB8124813581EA81FB81C4
:104CD000848D882F90E0820F931FEA81FB8195835A
:104CE0008483EA81FB8124813581EA81FB81828191
:104CF00093812817390708F456C0EA81FB81808127
:104D00009181EA81FB81958384834DC0EA81FB8197
:104D100066817781EA81FB81848D482F50E02C8168
:104D20003D81CB01B9010E942233EA81FB812681BA
:104D30003781EA81FB81848D882F90E09095819561
:104D40009F4F820F931FEA81FB8197838683EA81BD
:104D5000FB8126813781EA81FB818081918128173F
:104D6000390790F4EA81FB8122813381EA81FB815A
:104D7000848D882F90E0909581959F4F820F931F8F
:104D8000EA81FB81978386838E81823061F4EA8198
:104D9000FB81828D882339F0EA81FB81828D8150ED
:104DA000EA81FB81828FEA81FB81828D8F5FEA81BC
:104DB000FB81828F898126960FB6F894DEBF0FBEE5
:104DC000CDBFCF91DF910895DF93CF9300D000D076
:104DD000CDB7DEB79A8389837C836B83E981FA81BF
:104DE000848D882389F1E981FA8126813781E981DF
:104DF000FA81848D882F90E0820F931FE981FA81D8
:104E000097838683E981FA8126813781E981FA8156
:104E1000828193812817390740F0E981FA818081E6
:104E20009181E981FA8197838683E981FA814681BC
:104E30005781E981FA81848D282F30E08B819C8114
:104E4000BA01A9010E9422330F900F900F900F908A
:104E5000CF91DF910895DF93CF9300D0CDB7DEB728
:104E60009A8389830FB6F8940F9215C0E981FA816D
:104E700081898823A9F089819A8141960E94E52D34
:104E8000882311F00E94312FE981FA81868D8150AB
:104E9000E981FA81868FE981FA81868D181634F3CB
:104EA000E981FA818FEF868F0F900FBE0FB6F894CD
:104EB0000F9215C0E981FA8180858823A9F0898144
:104EC0009A8108960E94E52D882311F00E94312FC7
:104ED000E981FA81858D8150E981FA81858FE981A7
:104EE000FA81858D181634F3E981FA818FEF858F69
:104EF0000F900FBE0F900F90CF91DF910895DF9329
:104F0000CF9300D00F92CDB7DEB79B838A830FB6C5
:104F1000F8940F92EA81FB81828D882319F481E055
:104F2000898301C019820F900FBE89810F900F9065
:104F30000F90CF91DF910895DF93CF9300D00F9220
:104F4000CDB7DEB79B838A83EA81FB81828D88237C
:104F500019F481E0898301C0198289810F900F9033
:104F60000F90CF91DF910895DF93CF9300D00F92F0
:104F7000CDB7DEB79B838A830FB6F8940F92EA8190
:104F8000FB81928DEA81FB81838D981719F481E072
:104F9000898301C019820F900FBE89810F900F90F5
:104FA0000F90CF91DF910895DF93CF9300D00F92B0
:104FB000CDB7DEB79B838A83EA81FB81928DEA813C
:104FC000FB81838D981719F481E0898301C01982D0
:104FD00089810F900F900F90CF91DF910895DF930B
:104FE000CF93CDB7DEB72A970FB6F894DEBF0FBECA
:104FF000CDBF9D838C837F836E83598748878C8147
:105000009D819A838983F89489819A810E94B4272B
:105010008823A9F088859985009771F089819A8104
:105020009C01285F3F4F88859985B9010E940C1724
:1050300078948CEF8A872AC078941A8627C078944F
:10504000F894E981FA81928DE981FA81838D98172C
:10505000C8F489819A812E813F81B90140E00E9484
:105060002B2681E08B83E981FA818189882359F09D
:1050700089819A8141960E941819882321F08BEF2B
:105080008B8301C01B8278948B818A878A852A96BC
:105090000FB6F894DEBF0FBECDBFCF91DF9108955C
:1050A000DF93CF93CDB7DEB72A970FB6F894DEBF64
:1050B0000FBECDBF9D838C837F836E8359874887C6
:1050C0008C819D819A838983F894E981FA81828D0C
:1050D0008823A9F488859985009771F089819A8140
:1050E0009C012F5E3F4F88859985B9010E940C175E
:1050F00078948CEF8A8758C078941A8655C0789433
:10510000F894E981FA81828D882309F449C0E98104
:10511000FA8126813781E981FA81848D882F90E098
:10512000820F931FE981FA8197838683E981FA814F
:1051300026813781E981FA81828193812817390795
:1051400040F0E981FA8180819181E981FA81978338
:105150008683E981FA81828D8150E981FA81828F8B
:10516000E981FA8146815781E981FA81848D282F6E
:1051700030E08E819F81BA01A9010E94223381E033
:105180008B83E981FA818085882359F089819A810E
:1051900008960E941819882321F08BEF8B8301C099
:1051A0001B8278948B818A878A852A960FB6F89419
:1051B000DEBF0FBECDBFCF91DF910895DF93CF93B8
:1051C000CDB7DEB728970FB6F894DEBF0FBECDBFC0
:1051D0009C838B837E836D834F838B819C819A8399
:1051E0008983E981FA81928DE981FA81838D98170B
:1051F000D0F489819A812D813E81B90140E00E94DD
:105200002B268F81882379F4E981FA81818988238B
:1052100051F089819A8141960E941819882319F0CA
:1052200081E0888702C08F818887888528960FB69D
:10523000F894DEBF0FBECDBFCF91DF910895DF930D
:10524000CF93CDB7DEB729970FB6F894DEBF0FBE68
:10525000CDBF9D838C837F836E83598748878C81E4
:105260009D819A838983E981FA81828D882309F45B
:1052700050C0E981FA8126813781E981FA81848DE4
:10528000882F90E0820F931FE981FA8197838683AC
:10529000E981FA8126813781E981FA8182819381CE
:1052A0002817390740F0E981FA8180819181E981ED
:1052B000FA8197838683E981FA81828D8150E98121
:1052C000FA81828FE981FA8146815781E981FA81E9
:1052D000848D282F30E08E819F81BA01A9010E9420
:1052E0002233E885F9858081882381F4E981FA8178
:1052F0008085882359F089819A8108960E9418191F
:10530000882321F0E885F98581E0808381E08B8323
:1053100001C01B828B8129960FB6F894DEBF0FBEA9
:10532000CDBFCF91DF910895AF92BF92CF92DF9220
:10533000EF92FF920F931F93DF93CF93CDB7DEB71A
:1053400064970FB6F894DEBF0FBECDBF9F838E83E8
:10535000798768875B874A873D872C870E87F88A1D
:10536000EF86DA8AC98ABC8AAB8A8A859B852989B5
:105370003A89B9010E948A309C838B838B819C81FE
:10538000009709F48DC0EB81FC812789308D8A85D7
:105390009B850197820F931F9A8389838B819C81C0
:1053A00028853985EB89FC89AA85BB85B9014E859D
:1053B0009F018D010E944B2F89819A812E813F810F
:1053C0004C855D85B9010E94141FEB81FC8191839E
:1053D00080838F859889009731F0EF85F8898B81DC
:1053E0009C81918380830FB6F8940F9280919A06E6
:1053F0008F5F80939A068091970690919806009708
:1054000069F48B819C819093980680939706809194
:105410009A068130A9F40E94C52F12C080919E0681
:10542000882371F4E0919706F091980696898E850D
:10543000891730F08B819C81909398068093970612
:105440008091A2068F5F8093A206EB81FC819689F2
:1054500080919D06891728F4EB81FC8186898093D1
:105460009D06EB81FC818689282F30E0C901880FD9
:10547000991F880F991F880F991F820F931FAC01E6
:105480004C55594F8B819C819C012E5F3F4FCA0127
:10549000B9010E94181E81E08D830F900FBE02C0DB
:1054A0008FEF8D838D81813071F480919E068823EA
:1054B00051F0E0919706F091980696898E8598179D
:1054C00010F40E94D3208D8164960FB6F894DEBF4D
:1054D0000FBECDBFCF91DF911F910F91FF90EF9045
:1054E000DF90CF90BF90AF900895DF93CF9300D01F
:1054F00000D000D0CDB7DEB79C838B830FB6F89475
:105500000F928B819C81009739F48091970690913E
:1055100098069E838D8304C08B819C819E838D839E
:105520008D819E819A83898389819A8102960E94C6
:10553000C81EE981FA8184899589009729F08981BB
:105540009A810C960E94C81E89819A819C012E5FC7
:105550003F4F89EF96E0B9010E94181E809199068D
:105560008F5F809399068091A2068F5F8093A20639
:105570000F900FBE80919E06882399F02091970688
:105580003091980689819A818217930719F40E94B5
:10559000D32007C00FB6F8940F920E94E4300F900A
:1055A0000FBE26960FB6F894DEBF0FBECDBFCF91CB
:1055B000DF910895DF93CF9300D000D00F92CDB745
:1055C000DEB79D838C8319828C819D810097D1F0F9
:1055D0000E94522B20919B0630919C068C819D81CC
:1055E000820F931F9B838A838091970690919806E0
:1055F00002960E94C81E8A819B810E9441300E94AF
:105600005E2B89838981882311F40E94D3200F9017
:105610000F900F900F900F90CF91DF910895AF9260
:10562000BF92CF92DF92EF92FF920F93DF93CF93CF
:105630000F92CDB7DEB78BE39FE222E531E0B901EF
:1056400045E550E020E030E000E0EE24FF24CC24EB
:10565000DD24AA24BB240E94942989838981813076
:1056600051F4F89481E080939E0610929C0610926B
:105670009B060E9497200F90CF91DF910F91FF9092
:10568000EF90DF90CF90BF90AF900895DF93CF93CE
:10569000CDB7DEB7F89410929E060E94CC20CF9131
:1056A000DF910895DF93CF93CDB7DEB78091A30646
:1056B0008F5F8093A306CF91DF910895DF93CF93FF
:1056C00000D00F92CDB7DEB719820FB6F8940F92C3
:1056D0008091A30681508093A3068091A30688231E
:1056E00009F06DC080919A06882309F468C045C00E
:1056F000E091F506F091F606868197819B838A8377
:105700008A819B810C960E94C81E8A819B81029689
:105710000E94C81EEA81FB81968980919D068917A7
:1057200028F4EA81FB81868980939D06EA81FB81CA
:105730008689282F30E0C901880F991F880F991F8B
:10574000880F991F820F931FAC014C55594F8A81C6
:105750009B819C012E5F3F4FCA01B9010E94181E18
:10576000EA81FB819689E0919706F09198068689F7
:10577000981718F081E08093A0068091F0068823A6
:1057800009F0B6CF80919F06882389F00CC00E9453
:105790001D2C882319F081E08093A00680919F063C
:1057A000815080939F0680919F06882381F7809186
:1057B000A006813021F481E089830E94D3200F90DC
:1057C0000FBE89810F900F900F90CF91DF910895B8
:1057D000DF93CF9300D0CDB7DEB70FB6F8940F921A
:1057E00080919B0690919C069A8389830F900FBEAF
:1057F00089819A810F900F90CF91DF910895DF9367
:10580000CF9300D00F92CDB7DEB7198280919B065F
:1058100090919C069B838A838A819B810F900F9035
:105820000F90CF91DF910895DF93CF93CDB7DEB77F
:1058300080919A06CF91DF910895DF93CF93CDB7F2
:10584000DEB729970FB6F894DEBF0FBECDBF1D821D
:105850008091A306882309F0C2C080919B06909195
:105860009C06019690939C0680939B0680919B06D4
:1058700090919C069C838B838B819C810097D9F4AB
:105880008091EC069091ED069A8389838091EE06D3
:105890009091EF069093ED068093EC0689819A81B2
:1058A0009093EF068093EE068091A1068F5F809320
:1058B000A1060E94E43020915F01309160018B814C
:1058C0009C818217930708F471C0E091EC06F09177
:1058D000ED068081882339F48FEF9FEF909360016C
:1058E00080935F0163C0E091EC06F091ED060580C6
:1058F000F681E02D8681978199878887E885F985EB
:10590000828193819F838E832B813C818E819F81B5
:105910002817390738F48E819F8190936001809316
:105920005F0144C08885998502960E94C81EE8855B
:10593000F98584899589009729F0888599850C9641
:105940000E94C81EE885F985968980919D06891771
:1059500028F4E885F985868980939D06E885F98590
:105960008689282F30E0C901880F991F880F991F59
:10597000880F991F820F931FAC014C55594F888592
:1059800099859C012E5F3F4FCA01B9010E94181EE4
:10599000E885F9859689E0919706F09198068689C1
:1059A000981708F492CF81E08D838FCFE09197060E
:1059B000F09198068689282F30E0C901880F991F39
:1059C000880F991F880F991F820F931FFC01EC55B8
:1059D000F94F8081823040F081E08D8305C0809155
:1059E0009F068F5F80939F068091A006882311F009
:1059F00081E08D838D8129960FB6F894DEBF0FBEAE
:105A0000CDBFCF91DF910895DF93CF9300D0CDB775
:105A1000DEB78091A306882321F081E08093A00661
:105A200057C01092A00605C080919D0681508093BA
:105A30009D0680919D06282F30E0C901880F991F8F
:105A4000880F991F880F991F820F931FFC01EC5537
:105A5000F94F8081882341F380919D06282F30E003
:105A6000C901880F991F880F991F880F991F820FEE
:105A7000931F8C55994F9A838983E981FA8101801C
:105A8000F281E02D82819381E981FA819283818381
:105A9000E981FA812181328189819A8103962817CF
:105AA000390759F4E981FA810180F281E02D828180
:105AB0009381E981FA8192838183E981FA8101806E
:105AC000F281E02D868197819093980680939706C6
:105AD0000F900F90CF91DF910895DF93CF9300D077
