S00B00005346532E737265632D
S11300000C942A000C9447000C9447000C9447006D
S11300100C9447000C9447000C9447000C946D0317
S11300200C9447000C9447000C9447000C94470030
S11300300C9447000C9447000C9447000C94470020
S11300400C9447000C9447000C9447000C94470010
S11300500C94470011241FBECFE5D8E0DEBFCDBF0E
S113006011E0A0E6B0E0E8E0F7E202C005900D92EE
S1130070A233B107D9F726E0A2E3B1E001C01D9293
S1130080A231B207E1F70E940B0F0C9482130C9477
S11300900000411106C068237923672B49F480E0EE
S11300A00895862397236817790721F080E008953F
S11300B081E0089581E00895CF93DF938BE090E091
S11300C00E945401EC01009731F0FC01119211924D
S11300D0CF010E948A01CE01DF91CF910895AF92A2
S11300E0BF92CF92DF92EF92FF920F931F93CF9321
S11300F0DF937C015B01C42ED22E0E94A207F7017C
S1130100C081D1814D2DB501CE010E9449008823C3
S113011069F0CC2009F1C501809590958C239D232D
S1130120F7019183808300E010E018C001151105E8
S1130130A9F0C11003C060E070E002C060E071E0AB
S1130140D11074606A297B29A801C70102960E9414
S1130150A709C0E0D0E002C000E010E00E946408FB
S1130160012B19F1811102C00E94B8020E948E0A6B
S1130170EC0191FD19C00FB6F8940F92F701C081FC
S1130180D1814D2DB501CE010E944900882351F043
S1130190CC2041F0B501609570956C237D23F70167
S11301A0718360830F900FBEDD27CE01DF91CF9165
S11301B01F910F91FF90EF90DF90CF90BF90AF9081
S11301C00895FC010FB6F8940F9280819181609597
S11301D0709568237923718360830F900FBE08950F
S11301E0CF92DF92EF92FF920F931F93CF93DF93FF
S11301F07C018B01EC0125960E94A207D70117967A
S1130200ED91FC9118978D919C911197082B192BC6
S11302100D931C9300E010E02DC0C280D380808138
S113022091819C01332792FD09C0D7014D915C91C6
S113023042235323452B61F440E00DC0D7014D9177
S11302405C91422353232417350721F040E003C077
S113025041E001C041E0442359F090FF02C0022B69
S1130260132BD7016D917C917260CF010E94130A08
S1130270EC2DFD2DEC17FD0781F600951095F70187
S11302808081918108231923118300830E946408CB
S1130290D7018D919C91DF91CF911F910F91FF9088
S11302A0EF90DF90CF900895CF93DF93EC010E94FD
S11302B0A2078091320190913301892B31F487E3B5
S11302C091E0909333018093320120913401309175
S11302D03501C9018C0F9D1F8B3444E0940770F4E1
S11302E02817390770F4C0913201D0913301C20F3D
S11302F0D31F909335018093340105C0C0E0D0E052
S113030002C0C0E0D0E00E946408CE01DF91CF912A
S113031008950895FC010396928381832FEF3FEFA4
S113032034832383968385839087878310820895FB
S1130330FC01118610860895CF93DF939C01FB0185
S1130340DC011196CD91DC911297D383C2838C8109
S11303509D81958384838C819D81DC0113967C939C
S11303606E9312977D836C8331872087F901808196
S11303708F5F8083DF91CF910895CF93DF93EB015B
S1130380488159814F3F2FEF520721F4FC01A78187
S1130390B0850DC0DC01139601C0DF011296ED910A
S11303A0FC9113972081318142175307B0F71296BD
S11303B0ED91FC911397FB83EA83D583C483BD83BA
S11303C0AC831396DC93CE93129799878887FC01AC
S11303D020812F5F2083DF91CF910895CF93DF9306
S11303E0FC01A085B185C281D381848195819D83DF
S11303F08C83C481D581828193819B838A83119666
S11304008D919C911297E817F90731F484819581B5
S113041012969C938E931197118610868C9181501D
S11304208C93DF91CF9108951BBC8CE78ABD8BE040
S11304308EBD89B7806189BF089531E1FC013083A5
S1130440319722E220833197A3E3A083319760831D
S11304503197708331971082319760E860833197C8
S11304601082319762E06083319763E06083319753
S113047064E06083319765E06083319766E0608370
S1130480319767E06083319768E06083319769E072
S11304906083319760E1608331973083319732E133
S11304A03083319733E13083319734E130833197AE
S11304B035E13083319736E13083319737E130834A
S11304C0319738E13083319739E13083319730E225
S11304D03083319731E2308331972083319723E29F
S11304E020833197408331975083319726E22083CC
S11304F0319727E22083319728E22083319729E23C
S11305002083319720E32083319721E3208386974A
S113051008950E941402A091FD05B091FE05CD91AD
S1130520CDBFDD91DEBFFF91EF91DF91CF91BF9100
S1130530AF919F918F917F916F915F914F913F9177
S11305402F911F910F91FF90EF90DF90CF90BF906C
S1130550AF909F908F907F906F905F904F903F905F
S11305602F901F900F900FBE0F90089581E0089573
S11305700F920FB6F8940F921F9211242F923F926C
S11305804F925F926F927F928F929F92AF92BF929F
S1130590CF92DF92EF92FF920F931F932F933F938B
S11305A04F935F936F937F938F939F93AF93BF9377
S11305B0CF93DF93EF93FF93A091FD05B091FE05D8
S11305C00DB60D920EB60D920E942E09A091FD0556
S11305D0B091FE05CD91CDBFDD91DEBFFF91EF91CE
S11305E0DF91CF91BF91AF919F918F917F916F9147
S11305F05F914F913F912F911F910F91FF90EF9039
S1130600DF90CF90BF90AF909F908F907F906F902E
S11306105F904F903F902F901F900F900FBE0F90C0
S113062008950F920FB6F8940F921F9211242F92EF
S11306303F924F925F926F927F928F929F92AF926E
S1130640BF92CF92DF92EF92FF920F931F932F935B
S11306503F934F935F936F937F938F939F93AF9346
S1130660BF93CF93DF93EF93FF93A091FD05B091D8
S1130670FE050DB60D920EB60D920E94A8078111CB
S11306800E942E09A091FD05B091FE05CD91CDBF2C
S1130690DD91DEBFFF91EF91DF91CF91BF91AF91DB
S11306A09F918F917F916F915F914F913F912F9186
S11306B01F910F91FF90EF90DF90CF90BF90AF907C
S11306C09F908F907F906F905F904F903F902F906E
S11306D01F900F900FBE0F9008950E94110318955C
S11306E00FB6F8940F92FC01828D811102C081E053
S11306F001C080E00F900FBE08950FB6F8940F92DA
S1130700FC01228D838D281302C081E001C080E0AA
S11307100F900FBE08951F93CF93DF93EC01142F16
S11307204C8D4423D9F1111116C050E08C819D8168
S11307300E9431132C8D8C819D81820F911D9D838C
S11307408C832A813B818217930740F188819981A8
S11307509D838C8323C050E08E819F810E9431133E
S11307608C8D90E09195819591092E813F81280F80
S1130770391F3F832E83488159812417350730F46C
S11307802A813B81820F931F9F838E83123031F421
S11307908A8D882319F08A8D81508A8F8A8D8F5F84
S11307A08A8F80E0DF91CF911F910895FC01448DE1
S11307B04423A9F050E026813781240F351F378365
S11307C02683828193812817390720F080819181C3
S11307D097838683CB01668177810E9431130895C4
S11307E0CF93DF93EC010FB6F8940F920DC0898973
S11307F0882369F0CE0141960E94CB0981110E94A1
S11308008A0A8E8D81508E8F8E8D181684F38FEF09
S11308108E8F0F900FBE0FB6F8940F920DC088857F
S1130820882369F0CE0108960E94CB0981110E94A9
S11308308A0A8D8D81508D8F8D8D181684F38FEFDC
S11308408D8F0F900FBEDF91CF910895CF93DF93DB
S1130850EC010FB6F8940F92E881F9818B8D90E04A
S11308602C8D30E0829FA001839F500D929F500DEC
S113087011244E0F5F1F5B834A831A8EFD83EC8322
S11308800197289FA001299F500D389F500D1124D6
S1130890CF01840F951F9F838E838FEF8D8F8E8F53
S11308A061110CC08885882389F0CE0108960E94C6
S11308B0CB09813059F40E94B80208C0CE010896D1
S11308C00E948A01CE0141960E948A010F900FBEB8
S11308D081E0DF91CF9108950F931F93CF93DF931E
S11308E0882301F1062F182F8FE190E00E94540114
S11308F0EC01892BC9F0109FC001112401960E94BC
S1130900540199838883892B39F01B8F0C8F61E004
S1130910CE010E94260408C0CE010E948901C0E0D5
S1130920D0E002C0C0E0D0E0CE01DF91CF911F91B2
S11309300F910895CF92DF92EF92FF920F931F933E
S1130940CF93DF9300D000D01F92CDB7DEB78C01D8
S11309507B015D834C83C22ED12C0FB6F8940F9289
S1130960F801928D838D981718F0F2E0CF1219C018
S11309704C2DB701C8010E948B03F801918999237A
S113098049F0C80141960E94CB09813031F40E949C
S1130990B80203C081110E94B8020F900FBE81E01B
S11309A04DC08C819D81892B21F40F900FBE80E076
S11309B045C0D11006C0CE0101960E944D0ADD2427
S11309C0D3940F900FBE0E94A2070FB6F8940F9213
S11309D0F801858D8F3F09F4158EF801868D8F3FC0
S11309E009F4168E0F900FBEBE016C5F7F4FCE01CF
S11309F001960E94580A81111BC0C8010E947D0300
S1130A00882381F06C817D81C80108960E948A093F
S1130A10C8010E94F0030E94640881119ECF0E94C5
S1130A20B8029BCFC8010E94F0030E94640895CFCE
S1130A30C8010E94F0030E94640880E00F900F90A8
S1130A400F900F900F90DF91CF911F910F91FF9016
S1130A50EF90DF90CF900895AF92BF92CF92DF9244
S1130A60EF92FF920F931F93CF93DF9300D000D0A8
S1130A701F92CDB7DEB78C016B015D834C83E22EF0
S1130A80F12C0FB6F8940F92F801828D882349F166
S1130A90A680B780B601C8010E94D603E11010C039
S1130AA0F801828D8150828F80858823B1F0C8013E
S1130AB008960E94CB09813081F40E94B8020DC0CF
S1130AC0F801B782A6828189882339F0C80141964A
S1130AD00E94CB0981110E94B8020F900FBE81E0E1
S1130AE04DC08C819D81892B21F40F900FBE80E035
S1130AF045C0F11006C0CE0101960E944D0AFF24A4
S1130B00F3940F900FBE0E94A2070FB6F8940F92B1
S1130B10F801858D8F3F09F4158EF801868D8F3F7E
S1130B2009F4168E0F900FBEBE016C5F7F4FCE018D
S1130B3001960E94580A81111BC0C8010E947003CB
S1130B40882381F06C817D81C80141960E948A09C5
S1130B50C8010E94F0030E946408811192CF0E9490
S1130B60B8028FCFC8010E94F0030E94640889CFA5
S1130B70C8010E94F0030E94640880E00F900F9067
S1130B800F900F900F90DF91CF911F910F91FF90D5
S1130B90EF90DF90CF90BF90AF900895E091A105C2
S1130BA0F091A2058081811107C08FEF9FEF909390
S1130BB06100809360000895E091A105F091A20581
S1130BC00580F681E02D0680F781E02D82819381F6
S1130BD090936100809360000895EF92FF920F93C9
S1130BE01F93CF93DF937C01EB018DE290E00E9491
S1130BF054018C01892B89F0209721F4C7010E94AC
S1130C00540101C0CE01F801908F878B892B29F400
S1130C10C8010E94890100E010E0C801DF91CF9172
S1130C201F910F91FF90EF900895CF93DF93EC0104
S1130C308F89988D0E948901CE010E948901DF91DC
S1130C40CF9108951F93CF93DF93EC01142F20E0ED
S1130C500FC0822F90E0FB01E80FF91F3081DE0105
S1130C60A80FB91F59963C938081882319F02F5FF0
S1130C70243178F31CA6183008F017E01E8BCE013F
S1130C8002960E949801CE010C960E949801D98781
S1130C90C88788E090E0811B91099D878C87DB8B56
S1130CA0CA8BDF91CF911F910895CF93C0E010C0FC
S1130CB08C2F90E09C01220F331F220F331F220F31
S1130CC0331F820F931F8B549A4F0E948A01CF5F68
S1130CD0C83070F38CEA95E00E948A0183EA95E0BB
S1130CE00E948A0186E995E00E948A018DE895E0D8
S1130CF00E948A018CEA95E09093A2058093A10555
S1130D0083EA95E09093A00580939F05CF91089581
S1130D10CF93DF93EC01E091FD05F091FE05938301
S1130D2082838091890590918A05C817D90768F450
S1130D306091FD057091FE0580919F059091A0053D
S1130D406E5F7F4F0E94BD0117C06091FD057091D9
S1130D50FE058091A1059091A2056E5F7F4F0E94D0
S1130D60BD018091600090916100C817D90720F4FB
S1130D70D0936100C0936000DF91CF9108952F92CA
S1130D803F924F925F927F928F929F92AF92BF92C7
S1130D90CF92DF92EF92FF920F931F93CF93DF9343
S1130DA000D000D0CDB7DEB79A8389834B015C8332
S1130DB04B831901702EB6012501CA010E94ED056D
S1130DC05C01009709F46AC0FC01C788D08C8B8150
S1130DD09C810197C80ED91E0B811C819201472D5D
S1130DE0B401C5010E942206A10169817A81C6016C
S1130DF00E941D02F50191838083E114F10419F02E
S1130E00F701B182A0820FB6F8940F9280918B05FE
S1130E108F5F80938B058091FD059091FE05892B52
S1130E2059F4B092FE05A092FD0580918B058130A6
S1130E3091F40E9455060FC08091870581110BC063
S1130E40E091FD05F091FE058689781620F0B092B8
S1130E50FE05A092FD05809183058F5F8093830535
S1130E60F501868990918805981710F48093880578
S1130E7090E0B5016E5F7F4F9C01220F331F220F5C
S1130E80331F220F331F820F931F8B549A4F0E94DC
S1130E909C010F900FBEF1E0F98302C08FEF8983AC
S1130EA0E981E13069F480918705882349F0E09174
S1130EB0FD05F091FE058689871510F40E94B8029D
S1130EC089810F900F900F900F90DF91CF911F9118
S1130ED00F91FF90EF90DF90CF90BF90AF909F90D5
S1130EE08F907F905F904F903F902F900895AF9296
S1130EF0BF92CF92DF92EF92FF920F93A12CB12C6D
S1130F00C12CD12CE12CF12C00E020E030E045E5AF
S1130F1050E062E670E085E299E00E94BF0681300D
S1130F2049F4F8948093870510928A0510928905F4
S1130F300E9489020F91FF90EF90DF90CF90BF90B5
S1130F40AF900895809182058F5F80938205089504
S1130F50DF92EF92FF920F931F93CF93DF938091D1
S1130F608205811199C08091890590918A05019625
S1130F7090938A0580938905E0908905F0908A050D
S1130F80E114F104B9F48091A1059091A205209196
S1130F909F053091A0053093A2052093A10590935D
S1130FA0A00580939F05809184058F5F80938405BD
S1130FB00E94CE058091600090916100E816F906C8
S1130FC028F4D12C53C0DD24D39401C0D12CE0915A
S1130FD0A105F091A2058081811107C08FEF9FEFD9
S1130FE0909361008093600041C0E091A105F0916D
S1130FF0A2050580F681E02DC681D7818A819B8177
S1131000E816F90628F490936100809360002EC0DE
S11310108E010E5F1F4FC8010E94EE018C899D89CD
S1131020892B21F0CE010C960E94EE018E899091BD
S11310308805981710F48093880590E09C01220F8E
S1131040331F220F331F220F331F820F931FB80148
S11310508B549A4F0E949C019E89E091FD05F0916A
S1131060FE058689981708F0AECFB1CFE091FD0553
S1131070F091FE05868990E0FC01EE0FFF1FEE0F54
S1131080FF1FEE0FFF1F8E0F9F1FFC01EB54FA4F43
S11310908081823040F409C0809186058F5F8093FF
S11310A08605D12C02C0DD24D39480918505882344
S11310B011F0DD24D3948D2DDF91CF911F910F91E9
S11310C0FF90EF90DF9008950F931F93CF93DF93DA
S11310D00FB6F8940F928091820581508093820517
S11310E080918205811157C080918B05811132C096
S11310F055C0E0919B05F0919C05C681D781CE0136
S11311000C960E94EE018E010E5F1F4FC8010E94D3
S1131110EE018E8990918805981710F480938805C4
S113112090E09C01220F331F220F331F220F331F25
S1131130820F931FB8018B549A4F0E949C019E8981
S1131140E091FD05F091FE058689981718F081E07D
S113115080938505809196058111CBCF809186057A
S113116081110DC010C00E94A807882319F081E0E6
S113117080938505809186058150809386058091B2
S113118086058111F0CF80918505813031F40E946C
S1131190B80281E003C080E001C080E00F900FBE80
S11311A0DF91CF911F910F910895CF93DF93EC01BD
S11311B0892BA9F00E94A2078091890590918A0544
S11311C0C80FD91F8091FD059091FE0502960E94DB
S11311D0EE01CE010E9488060E94640801C080E0EE
S11311E0811102C00E94B802DF91CF910895CF937C
S11311F0DF9324C00E94A207C0918D050E94640859
S1131200CC23E1F00FB6F8940F92E0919205F0919F
S11312109305C681D781CE0102960E94EE0180918A
S11312208B05815080938B0580918C058150809330
S11312308C050F900FBECE010E94150680918C057F
S11312408111D8CFDF91CF9108950E94F708809142
S1131250B5058230D0F30E94B802F7CF80918205A1
S1131260882321F081E080938505089510928505F7
S113127005C08091880581508093880580918805F8
S113128090E0FC01EE0FFF1FEE0FFF1FEE0FFF1F9C
S11312908E0F9F1FFC01EB54FA4F8081882349F382
S11312A08091880590E09C01220F331F220F331F89
S11312B0220F331F280F391FD901AB54BA4F11968F
S11312C0ED91FC9112970280F381E02D1296FC932C
S11312D0EE93119728543A4FE217F30729F4228129
S11312E03381FD0132832183FC01EE0FFF1FEE0FDA
S11312F0FF1FEE0FFF1F8E0F9F1FFC01EB54FA4FD1
S11313000180F281E02D868197819093FE05809380
S1131310FD050895CF93DF93EB016091FD05709176
S1131320FE05645F7F4F0E94BD018091FD05909191
S1131330FE0502960E94EE018091890590918A052E
S11313408C0F9D1F0E948806DF91CF910895CF9343
S1131350DF93EA01E091FD05F091FE057068758761
S113136064876091FD057091FE05645F7F4F0E9464
S11313709C018091FD059091FE0502960E94EE016C
S11313808091890590918A058C0F9D1F0E94880683
S1131390DF91CF9108950F931F93CF93DF93DC01D7
S11313A01596ED91FC911697C681D7818E01045F45
S11313B01F4FC8010E94EE018091820581111CC05B
S11313C00A501109C8010E94EE018E899091880586
S11313D0981710F48093880590E09C01220F331F26
S11313E0220F331F220F331F820F931FB8018B5418
S11313F09A4F0E949C0105C0B80186E995E00E94BD
S11314009C019E89E091FD05F091FE05868989176E
S113141020F481E08093850501C080E0DF91CF91C5
S11314201F910F9108950F931F93CF93DF937068CB
S1131430FC0171836083C681D7810E94EE018E0115
S11314400E5F1F4FC8010E94EE018E89909188059E
S1131450981710F48093880590E09C01220F331FA5
S1131460220F331F220F331F820F931FB8018B5497
S11314709A4F0E949C019E89E091FD05F091FE0522
S11314808689891720F481E08093850501C080E076
S1131490DF91CF911F910F91089520918405FC0154
S11314A020832091890530918A0532832183089510
S11314B0CF93DF93FC010FB6F8940F924091890506
S11314C050918A05908180918405981729F0818133
S11314D0928148175907B0F421813281CA01821BD5
S11314E0930BEB01A881B9818A179B0768F4CF019C
S11314F0241B350B2A0F3B1F398328830E944D0A76
S113150080E003C081E001C081E00F900FBEDF9155
S1131510CF91089581E0809385050895E091FD05BC
S1131520F091FE0584859585E091FD05F091FE0519
S1131530A091FD05B091FE0556964C9128E030E04F
S1131540241B31093587248708950FEF1FEF20E00E
S113155040E067E070E080910206909103060E94EB
S11315606F00809310069093110681FF0FC0809145
S11315700E06813031F441E063E083E00E949E0F67
S113158005C040E063E083E00E949E0F8091100656
S113159082FF0FC080910F06813031F441E064E096
S11315A083E00E949E0F05C040E064E083E00E9457
S11315B09E0F8091100680FF0FC080910D06813030
S11315C031F441E062E083E00E949E0F05C040E0F8
S11315D062E083E00E949E0F85E090E00E94D508BF
S11315E0B4CF61E070E080910006909101060E9402
S11315F0F00067E070E080910206909103060E947B
S1131600E10020E04FEF5FEF60E070E080910406BE
S1131610909105060E942C05882399F3E6E0F6E0F4
S113162091818381891730F4EDE0F6E081E08283D3
S113163011820CC0981730F4EDE0F6E0128281E0DC
S1131640818304C0EDE0F6E01282118266E070E06E
S113165080910206909103060E94F0008AE090E0D7
S11316600E94D50866E070E080910206909103061E
S11316700E94E100E6E0F6E092818481891718F483
S113168010920D0603C081E080930D0661E070E0C6
S113169080910206909103060E94F0008AE090E097
S11316A00E94D50861E070E08091020690910306E3
S11316B00E94E10060E470E08091000690910106D0
S11316C00E94F0009ECFCF93DF93CDB7DEB72F9764
S11316D00FB6F894DEBF0FBECDBFFE01329683E095
S11316E0DF01982F1D929A95E9F73496DF011D9238
S11316F08A95E9F78DE08093FF0561E070E08091C1
S11317000006909101060E94F00010E08091FF0510
S11317108D3021F08E3009F47EC014C1CE010196C3
S11317200E94951181110EC180910606811118C085
S11317308981833409F006C181E080930606FE01A5
S1131740329683E0DF011D928A95E9F762E070E04A
S113175080910006909101060E94F00010E0F2C012
S1131760813009F0EFC08981833459F41092060660
S113177061E070E080910006909101060E94F00003
S1131780E1C090ED980F9A3060F4133008F0DAC09D
S1131790E2E0F0E0EC0FFD1FE10FF11D80831F5F1D
S11317A0D1C08F3441F5CE0102960E9413130097E5
S11317B0A9F08093090620E040E050E060E070E08A
S11317C080910406909105060E949A0460E170E0FD
S11317D080910006909101060E94F0008EE08093B3
S11317E0FF0560E870E080910006909101060E9478
S11317F0F00010E0A7C08E3409F0A4C08EE08093FE
S1131800FF0560E870E080910006909101060E9457
S1131810F00010E097C0CE0101960E94951181114D
S113182091C089818334B1F48DE08093FF05FE017A
S1131830369683E0DF011D928A95E9F71092060639
S113184061E070E080910006909101060E94F00032
S113185010E078C090ED980F9A3060F4133008F0DF
S113186071C0E6E0F0E0EC0FFD1FE10FF11D808395
S11318701F5F68C08F3409F056C0CE0106960E94DF
S11318801313892B09F441C0CE0106960E94A211BC
S1131890CE0106960E9413130F2EF6E0CF2EF6E02B
S11318A0DF2EF02DF601848360E081E00E94F810C1
S11318B0D60114968C9190E00E940F117E01BAE03B
S11318C0EB0EF11C85E0F70111928A95E9F7D60138
S11318D014968C914AE0B70190E00E944513C70129
S11318E00E94A21120E040E050E060E070E08091AE
S11318F00406909105060E949A0460E270E08091CB
S11319000006909101060E94F0008DE08093FF058F
S11319101092060661E070E0809100069091010645
S11319200E94F0000FC08E3469F48DE08093FF05AF
S11319301092060661E070E0809100069091010625
S11319400E94F00082E390E00E94D508DFCECF939E
S1131950DF9300D0CDB7DEB719821A82CE0101968B
S11319600E942B1181111AC0909107068981981742
S1131970A9F08093070620E040E050E060E070E0CA
S113198080910406909105060E949A0468E070E034
S113199080910006909101060E94F000CE0102960B
S11319A00E944F1181111AC0909108068A819817DC
S11319B0A9F08093080620E040E050E060E070E089
S11319C080910406909105060E949A0464E070E0F8
S11319D080910006909101060E94F00084EF91E04E
S11319E00E94D508BBCF0FEF1FEF20E041E06FEF5F
S11319F070E080910006909101060E946F00909320
S1131A000C0680930B0687E690E00E94A211809159
S1131A100B0680FFD7C080ED97E00E94D508809127
S1131A2006068111CFC00E9427118BE790E00E9427
S1131A30E51064E080E00E94F81086EB90E00E94DC
S1131A40E51064E080E00E94F810C6E0D6E08981E9
S1131A5090E00E940F1160E180E00E94F81086EB94
S1131A6090E00E94E51060E180E00E94F8108A8115
S1131A7090E00E940F1160E081E00E94F81080E97C
S1131A8090E00E94E51064E081E00E94F81086EB8B
S1131A9090E00E94E51064E081E00E94F8108B81E0
S1131AA090E00E940F1160E181E00E94F81086EB43
S1131AB090E00E94E51060E181E00E94F8108C81C2
S1131AC090E00E940F1160E082E00E94F81085EA25
S1131AD090E00E94E51080910D06813089F462E067
S1131AE082E00E94F81086EB90E00E94E51062E02C
S1131AF082E00E94F8108AEB90E00E94E51010C08A
S1131B0062E082E00E94F81086EB90E00E94E5100B
S1131B1062E082E00E94F8108DEB90E00E94E510F4
S1131B2080910E06813089F46AE082E00E94F81008
S1131B3086EB90E00E94E5106AE082E00E94F810D3
S1131B408AEB90E00E94E51010C06AE082E00E94F7
S1131B50F81086EB90E00E94E5106AE082E00E94B3
S1131B60F8108DEB90E00E94E51080910F06813013
S1131B7089F461E182E00E94F81086EB90E00E9413
S1131B80E51061E182E00E94F8108AEB90E00E9487
S1131B90E51010C061E182E00E94F81086EB90E04D
S1131BA00E94E51061E182E00E94F8108DEB90E064
S1131BB00E94E51060E083E00E94F81081EC90E060
S1131BC00E94E51080910B0681FF19C080910606E2
S1131BD08130A9F40E94271186ED90E00E94E5105F
S1131BE08BEE90E00E94E51080E091E00E94E51009
S1131BF06EE080E00E94F8108FE00E948A108091CD
S1131C000B0684FF0CC06EE080E00E94F8108CE0AC
S1131C100E948A108091090690E00E940F11809121
S1131C200B0685FF10C085E191E00E94A2116EE0D1
S1131C3082E00E94F8108CE00E948A1080910A06CB
S1131C4090E00E940F1180910B0687FF07C06EE0A1
S1131C5082E00E94F8108FE00E948A1080910B06A7
S1131C6083FF11C064E080E00E94F81086EB90E0EE
S1131C700E94E51064E080E00E94F810809107065D
S1131C8090E00E940F1180910B0682FF11C060E169
S1131C9080E00E94F81086EB90E00E94E51060E17D
S1131CA080E00E94F8108091080690E00E940F11D5
S1131CB080910606811197CE80910B0686FF93CE04
S1131CC080910D06813089F462E082E00E94F81070
S1131CD086EB90E00E94E51062E082E00E94F8103A
S1131CE08AEB90E00E94E51010C062E082E00E945E
S1131CF0F81086EB90E00E94E51062E082E00E941A
S1131D00F8108DEB90E00E94E51080910E06813072
S1131D1089F46AE082E00E94F81086EB90E00E9469
S1131D20E5106AE082E00E94F8108AEB90E00E94DD
S1131D30E51010C06AE082E00E94F81086EB90E0A3
S1131D400E94E5106AE082E00E94F8108DEB90E0BA
S1131D500E94E51080910F06813089F461E182E0F0
S1131D600E94F81086EB90E00E94E51061E182E0A9
S1131D700E94F8108AEB90E00E94E51034CE61E1F5
S1131D8082E00E94F81086EB90E00E94E51061E189
S1131D9082E00E94F8108DEB90E00E94E51023CEC3
S1131DA00E94B0100E94720F41E062E083E00E9442
S1131DB0141041E063E083E00E94141041E064E009
S1131DC083E00E94141040E062E083E00E949E0FD2
S1131DD040E063E083E00E949E0F40E064E083E023
S1131DE00E949E0F41E060E081E00E94141040E0F8
S1131DF060E081E00E949E0FE6E0F6E084E18383E8
S1131E008EE1848380E895E20E94721181E291E080
S1131E100E94A2110895AF92BF92CF92DF92EF92E7
S1131E20FF920F930E94D00E0E945C0090930306D1
S1131E30809302060E945C00909301068093000642
S1131E4043E060E081E00E946C0490930506809377
S1131E500406A12CB12CC12CD12CE12CF12C02E0D4
S1131E6020E030E04AEA50E060E070E083EF9CE07C
S1131E700E94BF0603E020E030E044E650E060E06A
S1131E8070E087EA9CE00E94BF0604E020E030E0B6
S1131E9046E450E060E070E083E69BE00E94BF0609
S1131EA005E020E030E046E450E060E070E081EFDF
S1131EB09AE00E94BF0606E020E030E046E950E0E8
S1131EC060E070E085EA9AE00E94BF060E9477070E
S1131ED080E090E00F91FF90EF90DF90CF90BF9063
S1131EE0AF90089587B18F7787B987B1806487B938
S1131EF087B18F7D87B986B1846086B986B18260E7
S1131F0086B986B18E7F86B986B1806886B9089510
S1131F1097B1907E97B997B1892B87B986B18064C0
S1131F2086B904C085E090E00E94D508349BFACFBE
S1131F3086B1806186B984B195B10895843008F082
S1131F4072C0683008F06FC04130A1F5813089F06B
S1131F5028F08230C9F0833011F108952BB381E069
S1131F6090E002C0880F991F6A95E2F7822B8BBB21
S1131F70089528B381E090E002C0880F991F6A9504
S1131F80E2F7822B88BB089525B381E090E002C07C
S1131F90880F991F6A95E2F7822B85BB089522B3B7
S1131FA081E090E002C0880F991F6A95E2F7822BC6
S1131FB082BB0895411137C0813091F028F08230FE
S1131FC0D9F0833029F108952BB381E090E002C069
S1131FD0880F991F6A95E2F7809582238BBB089539
S1131FE028B381E090E002C0880F991F6A95E2F758
S1131FF08095822388BB089525B381E090E002C0D8
S1132000880F991F6A95E2F78095822385BB08950E
S113201022B381E090E002C0880F991F6A95E2F72D
S11320208095822382BB0895843008F072C06830A2
S113203008F06FC04130A1F5813089F028F082307A
S1132040C9F0833011F108952AB381E090E002C011
S1132050880F991F6A95E2F7822B8ABB089527B3EC
S113206081E090E002C0880F991F6A95E2F7822B05
S113207087BB089524B381E090E002C0880F991FC4
S11320806A95E2F7822B84BB089521B381E090E046
S113209002C0880F991F6A95E2F7822B81BB0895CD
S11320A0411137C0813091F028F08230D9F083306B
S11320B029F108952AB381E090E002C0880F991FA6
S11320C06A95E2F7809582238ABB089527B381E05D
S11320D090E002C0880F991F6A95E2F780958223E9
S11320E087BB089524B381E090E002C0880F991F54
S11320F06A95E2F78095822384BB089521B381E039
S113210090E002C0880F991F6A95E2F780958223B8
S113211081BB089592B39F7D92BB92B39F7B92BB88
S1132120E9EFF0E03197F1F700C0000092B3906856
S113213092BBE9EFF0E03197F1F700C0000085BBF6
S113214089EF90E00197F1F700C0000082B38F7728
S113215082BBE9EFF0E03197F1F700C00000089589
S113216081B3806E81BB8FEF84BB88E30E948A10A9
S11321708CE00E948A1081E00E948A10089592B334
S1132180906292BB92B39F7B92BBE9EFF0E03197F0
S1132190F1F700C0000092B3906892BBE9EFF0E061
S11321A03197F1F700C0000085BB89EF90E00197FB
S11321B0F1F700C0000082B38F7782BBE9EFF0E053
S11321C03197F1F700C0000008950F931F93CF9348
S11321D08C01C0E003C00E94BF10CF5FF801EC0F78
S11321E0F11D80818111F7CFCF911F910F91089537
S11321F0813031F070F0823031F0833039F00AC030
S113220090E4960F07C094E1960F04C094E5960FEE
S113221001C0962F892F80680E948A100895CF9359
S1132220DF9300D000D0CDB7DEB74AE050E0BE0166
S11322306F5F7F4F0E943A13CE0101960E94E51012
S11322400F900F900F900F90DF91CF91089581E040
S11322500E948A100895CF93DF93EC0180E00E94DE
S1132260880FBC0180E090E00E94E71123E333E390
S113227043E452E40E944D120E94B8119B0136952A
S1132280279536952795ABE7B4E10E9404139695FC
S113229087959983888380E0DF91CF910895CF93C8
S11322A0DF93EC0181E00E94880FBC0180E090E0A4
S11322B00E94E71123E333E343E452E40E944D1206
S11322C00E94B8119B013695279536952795ABE763
S11322D0B4E10E94041396958795888380E0DF918A
S11322E0CF910895A0E0B0E0880F991FAA1FBB1FEB
S11322F0880F991FAA1FBB1F9C01AD01220F331F1A
S1132300441F551F220F331F441F551F60E072E105
S11323108AE790E00E94E2122150310929B930BDC8
S113232086E880BD88E18AB908955F9B05C02CB119
S1132330FC01208380E0089582E008955D9BFECF38
S11323408CB908950F931F93CF93DF938C01C0E052
S1132350D0E003C00E949E112196F801EC0FFD1FEE
S113236080818111F7CFDF91CF911F910F91089553
S11323700E942C1288F09F5798F0B92F9927B751D3
S1132380B0F0E1F0660F771F881F991F1AF0BA9515
S1132390C9F714C0B13091F00E944612B1E008951B
S11323A00C944612672F782F8827B85F39F0B93F0D
S11323B0CCF3869577956795B395D9F73EF49095C8
S11323C08095709561957F4F8F4F9F4F0895E89446
S11323D009C097FB3EF490958095709561957F4F69
S11323E08F4F9F4F9923A9F0F92F96E9BB27939517
S11323F0F695879577956795B795F111F8CFFAF427
S1132400BB0F11F460FF1BC06F5F7F4F8F4F9F4F57
S113241016C0882311F096E911C0772321F09EE8B5
S1132420872F762F05C0662371F096E8862F70E01B
S113243060E02AF09A95660F771F881FDAF7880FF5
S11324409695879597F9089557FD9058440F551F11
S113245059F05F3F71F04795880F97FB991F61F022
S11324609F3F79F087950895121613061406551F99
S1132470F2CF4695F1DF08C0161617061806991F05
S1132480F1CF86957105610508940895E894BB27FA
S113249066277727CB0197F908950E9460120C9460
S11324A0D1120E94C31238F00E94CA1220F0952360
S11324B011F00C94BA120C94C01211240C9447120B
S11324C00E94241270F3959FC1F3950F50E0551F9D
S11324D0629FF001729FBB27F00DB11D639FAA2775
S11324E0F00DB11DAA1F649F6627B00DA11D661FC4
S11324F0829F2227B00DA11D621F739FB00DA11DE5
S1132500621F839FA00D611D221F749F3327A00D9E
S1132510611D231F849F600D211D822F762F6A2F3A
S113252011249F5750409AF0F1F088234AF0EE0F9F
S1132530FF1FBB1F661F771F881F91505040A9F7CC
S11325409E3F510580F00C94BA120C9447125F3FE1
S1132550E4F3983ED4F3869577956795B795F79508
S1132560E7959F5FC1F7FE2B880F911D9695879580
S113257097F9089597F99F6780E870E060E00895FF
S11325809FEF80EC089500240A9416161706180687
S11325900906089500240A94121613061406050663
S11325A00895092E0394000C11F4882352F0BB0FF4
S11325B040F4BF2B11F460FF04C06F5F7F4F8F4F57
S11325C09F4F0895A1E21A2EAA1BBB1BFD010DC04B
S11325D0AA1FBB1FEE1FFF1FA217B307E407F507CF
S11325E020F0A21BB30BE40BF50B661F771F881FAB
S11325F0991F1A9469F760957095809590959B0141
S1132600AC01BD01CF010895A29FB001B39FC001E9
S1132610A39F700D811D1124911DB29F700D811D0A
S11326201124911D0895FC0188279927E89421918C
S11326302032E9F3293010F02E30C8F32B3241F068
S11326402D3239F4689404C00E945013820F911DF6
S1132650219120532A30C0F31EF4909581959F4F09
S11326600895FB01DC0102C001900D9241505040DD
S1132670D8F708954532510520F4423010F00C94F7
S11326804513FB011082CB010895BB274A3031F476
S1132690992322F4BDE2909581959F4F0C94591390
S11326A07AE0979F902D879F802D910D1124089596
S11326B0BB27FB015527AA27880F991FAA1FA41718
S11326C010F0A41B83955051B9F7A05DAA3308F00C
S11326D0A95DA193009779F7B111B1931192CB0140
S11326E00C947213DC01FC01672F71917723E1F7DD
S11326F0329704C07C916D9370836291AE17BF07CB
S10B2700C8F30895F894FFCF1B
S1132708FFFF49444C450052756E6E696E6720544C
S11327185F446973706C61790D0A0054203D202070
S11327282020432020202048203D20202020250050
S113273854543D20202020432020202054483D206C
S11327482020202500503A202020202020483A200C
S113275820202020433A202020004F4E004F464698
S1132768002020436F6E66696775726174696F6EC5
S11327783A204320200054656D705468726573686C
S11327886F6C643A2020202020430048756D6954FA
S113279868726573686F6C643A20202020202500D5
S11327A84F4B3A4F204E6578743A4E2043616E631E
S11327B8656C3A4300455F485455706461746564B8
S11327C80053797374656D20737461727465640D54
S10527D80A00F1
S9030000FC
